:020000040800F2
:10000000000002201D360008D5330008DB3300084D
:10001000E1330008E7330008ED330008000000007A
:1000200000000000000000000000000061970008D0
:10003000F333000800000000B199000825710008A2
:100040006D3600086D3600086D3600086D36000804
:100050006D3600086D3600086D3600086D360008F4
:100060006D3600086D3600086D3600086D360008E4
:100070006D3600086D3600086D3600086D360008D4
:100080006D3600086D3600086D3600086D360008C4
:100090006D3600086D3600086D3600086D360008B4
:1000A0006D360008013400086D3600086D36000812
:1000B0006D3600086D3600086D3600086D36000894
:1000C0006D3600086D3600086D3600086D36000884
:1000D0006D3600086D3600086D3600086D36000874
:1000E0006D3600086D3600086D3600086D36000864
:1000F0006D3600086D3600086D3600086D36000854
:100100006D3600086D3600086D3600086D36000843
:100110006D3600086D3600086D3600086D36000833
:100120006D3600086D3600086D3600086D36000823
:100130006D3600086D3600086D3600086D36000813
:100140006D3600086D3600086D3600086D36000803
:100150006D3600086D3600086D3600086D360008F3
:100160006D3600086D3600086D3600086D360008E3
:100170006D3600086D3600086D360008000000007E
:080180006D3600086D36000821
:1001900010B5054C237833B9044B13B10448AFF3C1
:1001A00000800123237010BDF80100200000000032
:1001B000DCF7000808B5034B1BB103490348AFF354
:1001C000008008BD00000000FC010020DCF70008F2
:1001D00001F0FF01102A2BDB10F0070F08D010F8F8
:1001E000013B013A8B422DD010F0070F42B3F6D1FC
:1001F000F0B441EA012141EA014122F007047FF015
:1002000000070023F0E80256083C85EA010586EA6B
:10021000010685FA47F5A3FA87F586FA47F6A5FAA7
:1002200087F68EB9EED1F0BC01F0FF0102F00702B3
:1002300032B110F8013B013A83EA010313B1F8D15E
:100240000020704701387047002D06BF354603383F
:10025000073815F0010F07D1013015F4807F02BF78
:10026000013015F4C03F0130F0BC0138704700BFC9
:10027000034613F8012B002AFBD1181A01387047E6
:1002800081F0004102E000BF83F0004330B54FEA47
:1002900041044FEA430594EA050F08BF90EA020FB4
:1002A0001FBF54EA000C55EA020C7FEA645C7FEA47
:1002B000655C00F0E2804FEA5454D4EB5555B8BF6A
:1002C0006D420CDD2C4480EA020281EA030382EADB
:1002D000000083EA010180EA020281EA0303362D6D
:1002E00088BF30BD11F0004F4FEA01314FF4801C40
:1002F0004CEA113102D0404261EB410113F0004F52
:100300004FEA03334CEA133302D0524263EB430308
:1003100094EA050F00F0A780A4F10104D5F1200EA6
:100320000DDB02FA0EFC22FA05F2801841F1000101
:1003300003FA0EF2801843FA05F359410EE0A5F1D5
:1003400020050EF1200E012A03FA0EFC28BF4CF006
:10035000020C43FA05F3C01851EBE37101F00045BC
:1003600007D54FF0000EDCF1000C7EEB00006EEBC9
:100370000101B1F5801F1BD3B1F5001F0CD3490853
:100380005FEA30004FEA3C0C04F101044FEA4452AA
:1003900012F5800F80F09A80BCF1004F08BF5FEA31
:1003A000500C50F1000041EB045141EA050130BD11
:1003B0005FEA4C0C404141EB0101013C28BFB1F523
:1003C000801FE9D291F0000F04BF01460020B1FA6E
:1003D00081F308BF2033A3F10B03B3F120020CDA41
:1003E0000C3208DD02F1140CC2F10C0201FA0CF01F
:1003F00021FA02F10CE002F11402D8BFC2F1200C84
:1004000001FA02F120FA0CFCDCBF41EA0C01904039
:10041000E41AA2BF01EB0451294330BD6FEA040482
:100420001F3C1CDA0C340EDC04F11404C4F120026D
:1004300020FA04F001FA02F340EA030021FA04F37F
:1004400045EA030130BDC4F10C04C4F1200220FAD6
:1004500002F001FA04F340EA0300294630BD21FA14
:1004600004F0294630BD94F0000F83F4801306BFDA
:1004700081F480110134013D4EE77FEA645C18BFCE
:100480007FEA655C29D094EA050F08BF90EA020F65
:1004900005D054EA000C04BF1946104630BD91EA5D
:1004A000030F1EBF0021002030BD5FEA545C05D160
:1004B0004000494128BF41F0004130BD14F580049F
:1004C0003CBF01F5801130BD01F0004545F0FE4113
:1004D00041F470014FF0000030BD7FEA645C1ABF48
:1004E000194610467FEA655C1CBF0B46024650EA7F
:1004F000013406BF52EA033591EA030F41F40021AB
:1005000030BD00BF90F0000F04BF0021704730B530
:100510004FF4806404F132044FF000054FF0000105
:1005200050E700BF90F0000F04BF0021704730B5C6
:100530004FF4806404F1320410F0004548BF40429B
:100540004FF000013EE700BF42004FEAE2014FEAF0
:1005500031014FEA02701FBF12F07F4393F07F4FCB
:1005600081F06051704732F07F4208BF704793F0CE
:100570007F4F04BF41F40021704730B54FF46074E1
:1005800001F0004521F000411CE700BF50EA0102E4
:1005900008BF704730B54FF000050AE050EA01028D
:1005A00008BF704730B511F0004502D5404261EBFD
:1005B00041014FF4806404F132045FEA915C3FF43E
:1005C000D8AE4FF003025FEADC0C18BF03325FEADB
:1005D000DC0C18BF033202EBDC02C2F1200300FA8C
:1005E00003FC20FA02F001FA03FE40EA0E0021FAB1
:1005F00002F11444BDE600BF70B54FF0FF0C4CF49F
:10060000E06C1CEA11541DBF1CEA135594EA0C0F50
:1006100095EA0C0F00F0DEF82C4481EA030621EA8B
:100620004C5123EA4C5350EA013518BF52EA0335C6
:1006300041F4801143F4801338D0A0FB02CE4FF078
:100640000005E1FB02E506F00042E0FB03E54FF0A8
:100650000006E1FB03569CF0000F18BF4EF0010EA0
:10066000A4F1FF04B6F5007F64F5407404D25FEA9C
:100670004E0E6D4146EB060642EAC62141EA55514F
:100680004FEAC52040EA5E504FEACE2EB4F1FD0C91
:1006900088BFBCF5E06F1ED8BEF1004F08BF5FEA0F
:1006A000500E50F1000041EB045170BD06F00046C1
:1006B00046EA010140EA020081EA0301B4EB5C046E
:1006C000C2BFD4EB0C0541EA045170BD41F4801166
:1006D0004FF0000E013C00F3AB8014F1360FDEBF8B
:1006E000002001F0004170BDC4F10004203C35DA67
:1006F0000C341BDC04F11404C4F1200500FA05F3EA
:1007000020FA04F001FA05F240EA020001F000428A
:1007100021F0004110EBD37021FA04F642EB060100
:100720005EEA430E08BF20EAD37070BDC4F10C042A
:10073000C4F1200500FA04F320FA05F001FA04F2EE
:1007400040EA020001F0004110EBD37041F10001DA
:100750005EEA430E08BF20EAD37070BDC4F12005E5
:1007600000FA05F24EEA020E20FA04F301FA05F24D
:1007700043EA020321FA04F001F0004121FA04F2F5
:1007800020EA020000EBD3705EEA430E08BF20EAC5
:10079000D37070BD94F0000F0FD101F000464000FF
:1007A00041EB010111F4801F08BF013CF7D041EA81
:1007B000060195F0000F18BF704703F00046520085
:1007C00043EB030313F4801F08BF013DF7D043EA56
:1007D0000603704794EA0C0F0CEA135518BF95EA0C
:1007E0000C0F0CD050EA410618BF52EA4306D1D193
:1007F00081EA030101F000414FF0000070BD50EAB2
:10080000410606BF1046194652EA430619D094EA3B
:100810000C0F02D150EA013613D195EA0C0F05D125
:1008200052EA03361CBF104619460AD181EA030179
:1008300001F0004141F0FE4141F470014FF0000031
:1008400070BD41F0FE4141F4780170BD70B54FF0CC
:10085000FF0C4CF4E06C1CEA11541DBF1CEA13554C
:1008600094EA0C0F95EA0C0F00F0A7F8A4EB05042E
:1008700081EA030E52EA03354FEA013100F0888025
:100880004FEA03334FF0805545EA131343EA1263EE
:100890004FEA022245EA111545EA10654FEA0026A3
:1008A0000EF000419D4208BF964244F1FD0404F55C
:1008B000407402D25B084FEA3202B61A65EB0305B8
:1008C0005B084FEA32024FF480104FF4002CB6EB75
:1008D000020E75EB030E22BFB61A754640EA0C00F5
:1008E0005B084FEA3202B6EB020E75EB030E22BF35
:1008F000B61A754640EA5C005B084FEA3202B6EB76
:10090000020E75EB030E22BFB61A754640EA9C0034
:100910005B084FEA3202B6EB020E75EB030E22BF04
:10092000B61A754640EADC0055EA060E18D04FEAC2
:10093000051545EA16754FEA06164FEAC30343EA62
:1009400052734FEAC2025FEA1C1CC0D111F4801F2F
:100950000BD141EA00014FF000004FF0004CB6E728
:1009600011F4801F04BF01430020B4F1FD0C88BFC7
:10097000BCF5E06F3FF6AFAEB5EB030C04BFB6EBD2
:10098000020C5FEA500C50F1000041EB045170BDC5
:100990000EF0004E4EEA113114EB5C04C2BFD4EBF2
:1009A0000C0541EA045170BD41F480114FF0000E76
:1009B000013C90E645EA060E8DE60CEA135594EAF2
:1009C0000C0F08BF95EA0C0F3FF43BAF94EA0C0FF5
:1009D0000AD150EA01347FF434AF95EA0C0F7FF46A
:1009E00025AF104619462CE795EA0C0F06D152EABE
:1009F00003353FF4FDAE1046194622E750EA4106A2
:100A000018BF52EA43067FF4C5AE50EA41047FF4B2
:100A10000DAF52EA43057FF4EBAE12E74FF0FF3C17
:100A200006E000BF4FF0010C02E000BF4FF0010CE8
:100A30004DF804CD4FEA410C7FEA6C5C4FEA430C61
:100A400018BF7FEA6C5C1BD001B050EA410C0CBFB0
:100A500052EA430C91EA030F02BF90EA020F002012
:100A6000704710F1000F91EA030F58BF994208BF79
:100A700090422CBFD8176FEAE37040F00100704736
:100A80004FEA410C7FEA6C5C02D150EA013C07D18D
:100A90004FEA430C7FEA6C5CD6D152EA033CD3D0D8
:100AA0005DF8040B704700BF8446104662468C46D2
:100AB0001946634600E000BF01B5FFF7B7FF002805
:100AC00048BF10F1000F01BD4DF808EDFFF7F4FF2E
:100AD0000CBF012000205DF808FB00BF4DF808EDB9
:100AE000FFF7EAFF34BF012000205DF808FB00BFDC
:100AF0004DF808EDFFF7E0FF94BF012000205DF8FE
:100B000008FB00BF4DF808EDFFF7CEFF94BF0120B2
:100B100000205DF808FB00BF4DF808EDFFF7C4FFAB
:100B200034BF012000205DF808FB00BF4FEA410CF4
:100B30007FEA6C5C02D150EA013C0AD14FEA430CD7
:100B40007FEA6C5C02D152EA033C02D14FF0000014
:100B500070474FF0010070474FEA410212F5001252
:100B600015D211D56FF47873B3EB625212D94FEAF4
:100B7000C12343F0004343EA505311F0004F23FADE
:100B800002F018BF404270474FF00000704750EA33
:100B9000013005D111F0004008BF6FF000407047F0
:100BA0004FF00000704700BF4A0011D212F500124A
:100BB00011D20DD56FF47873B3EB62520ED44FEAB5
:100BC000C12343F0004343EA505323FA02F0704735
:100BD0004FF00000704750EA013002D14FF0FF3073
:100BE00070474FF0000070474FEA4102B2F1E04316
:100BF00024BFB3F5001CDCF1FE5C0DD901F0004C04
:100C00004FEAC0024CEA5070B2F1004F40EB830053
:100C100008BF20F00100704711F0804F21D113F17F
:100C20003872BCBF01F00040704741F480114FEAB8
:100C30005252C2F11802C2F1200C10FA0CF320FA41
:100C400002F018BF40F001004FEAC1234FEAD3235E
:100C500003FA0CFC40EA0C0023FA02F34FEA4303C8
:100C6000CCE77FEA625307D150EA01331EBF4FF051
:100C7000FE4040F44000704701F0004040F0FE406C
:100C800040F40000704700BF53B94AB9002908BFBB
:100C900000281CBF4FF0FF314FF0FF3000F0A6B925
:100CA000ADF1080C6DE904CE00F03CF8DDF804E08D
:100CB000DDE9022304B0704738B500220023044662
:100CC0000D46FFF70BFF28B920462946BDE83840FE
:100CD00000F00AB8204605F1004100F005F8404256
:100CE00061EB410138BD00BFD0B50C4B0022064678
:100CF0000F46FFF781FCFFF757FF0446FFF702FCA2
:100D0000074B0022FFF778FC02460B463046394677
:100D1000FFF7BAFAFFF748FF2146D0BD0000F03DCB
:100D20000000F0412DE9F047089E0D4604460F46AD
:100D3000002B4AD18A42944665D9B2FA82F343B174
:100D400002FA03FCC3F120029F4020FA02F217438B
:100D50009C404FEA1C4E1FFA8CF5B7FBFEF1220CAB
:100D60000EFB117742EA074201FB05F090420AD9D7
:100D70001CEB020201F1FF3780F01C81904240F22F
:100D8000198102396244121AA4B2B2FBFEF00EFBC2
:100D9000102244EA024400FB05F5A5420AD91CEBE7
:100DA000040400F1FF3280F00781A54240F2048183
:100DB0006444023840EA0140641B00211EB1DC405B
:100DC0000023C6E90043BDE8F0878B4208D9002E16
:100DD00000F0ED800021C6E900050846BDE8F08777
:100DE000B3FA83F1002949D1AB4202D3824200F227
:100DF000F880841A65EB030201201746002EE2D02A
:100E0000C6E90047DFE702B9FFDEB2FA82F3002B42
:100E100040F090808A1A4FEA1C471FFA8CFE01218D
:100E2000B2FBF7F507FB1520220C42EA00420EFB4D
:100E300005F0904208D91CEB020205F1FF3802D2FE
:100E4000904200F2CB804546121AA4B2B2FBF7F0F2
:100E500007FB102244EA02440EFB00FEA64508D917
:100E60001CEB040400F1FF3202D2A64500F2BB8065
:100E70001046A4EB0E0440EA05409FE7C1F12007AD
:100E80008B4022FA07FC4CEA030C05FA01F420FA25
:100E900007F3FD404FEA1C492343B5FBF9F81FFA5D
:100EA0008CFE09FB18551C0C44EA054408FB0EF5A2
:100EB000A54202FA01F200FA01F00BD91CEB04047E
:100EC00008F1FF3A80F08880A54240F28580A8F1C1
:100ED00002086444641B9DB2B4FBF9F309FB13449C
:100EE00045EA044403FB0EFEA64508D91CEB0404A6
:100EF00003F1FF356CD2A6456AD9023B644443EA4C
:100F00000843A3FB0295A4EB0E04AC42C846AE46D0
:100F100056D353D056B1B0EB080264EB0E0404FA7A
:100F200007F7CA40CC401743C6E9007418460021B1
:100F3000BDE8F087C3F1200102FA03FC20FA01F2B8
:100F400025FA01F19D402A434FEA1C471FFA8CFE07
:100F5000B1FBF7F007FB1015110C41EA054100FB4E
:100F60000EF58D4204FA03F408D91CEB010100F1DF
:100F7000FF382FD28D422DD902386144491B92B2DD
:100F8000B1FBF7F507FB151142EA014205FB0EF133
:100F9000914208D91CEB020205F1FF3816D29142AA
:100FA00014D9023D6244521A45EA004138E73146FD
:100FB000304608E73946E6E61046FBE64845A9D242
:100FC000B9EB020865EB0C0E013BA3E74546EAE7E7
:100FD0002B4694E74046D1E7D0467BE7023D62448A
:100FE00032E708460AE76444023842E7704700BF28
:100FF000B0B584B000AF78607B68032B29D07B68E4
:10100000032B36DC7B68012B03D07B68022B10D0CE
:101010002FE06D4B1B78002B02D04FF6FF7200E0E3
:1010200000226A4B1B685A62674B1A78684B1A7029
:101030001FE0684B1B78002B02D04FF6FF7200E0D8
:101040000022654B1B685A62624B1A78604B1A701B
:101050000FE0624B1B78002B02D04FF6FF7200E0CE
:1010600000225F4B1B685A625C4B1A78584B1A700F
:1010700000BF574B1B78184600F0F4F807F0AAFBA6
:10108000F86029E07B68032B17D07B68032B1BDCFF
:101090007B68012B03D07B68022B07D014E04B4BFD
:1010A0001B685B6A9AB24F4B1A800DE04A4B1B6873
:1010B0005B6A9AB24B4B1A8006E0494B1B685B6A2D
:1010C0009AB2484B1A8000BF464B1B88404A1278A0
:1010D0001146184600F092F807F07CFB0246FB68C8
:1010E000D31A142BCED9404B1B681846FFF71AFAB7
:1010F00031A3D3E90023FFF77FFA02460B461446DB
:101100001D46334B1B78002B08D0364B1B88C3F58C
:101110007F43FF331846FFF705FA04E0314B1B8885
:101120001846FFF7EFF922462B46FFF7AFF80246C5
:101130000B461046194622A3D3E90023FFF786FB8E
:1011400002460B46104619464FF00002274BFFF7A8
:1011500053FA02460B46104619464FF00002244B44
:10116000FFF74AFA02460B462249C1E90023214B08
:10117000D3E900014FF000021F4BFFF7CDFC0346FF
:10118000002B04D04FF000024FF0000302E0194B97
:10119000D3E900231749C1E90023164BD3E9002303
:1011A00043EC172BB0EE470AF0EE670A1037BD4646
:1011B000B0BD00BFAFF300800000000000BDEF40F5
:1011C0000000000000F3E640000000208002002044
:1011D0002802002001000020C80200200200002098
:1011E00010030020200200202402002000004940BB
:1011F00000004E401802002000408F4080B483B0B1
:1012000000AF03460A46FB8013467B717B7983F06F
:101210000103DBB2002B0DD0104B1B88FA889A42D9
:1012200004D20F4B1B6801330D4A13600B4AFB8835
:1012300013800CE0094B1B88FA889A4204D9084BAA
:101240001B680133064A1360044AFB88138000BF01
:101250000C37BD465DF8047B704700BF22020020BA
:101260002402002080B483B000AF0346FB71094B19
:1012700000221A60FB79002B02D04FF6FF7200E0CB
:101280000022054B1A8000BF0C37BD465DF8047B79
:10129000704700BF2402002022020020000000004E
:1012A00080B500AF1A4914A3D3E90023C1E9002394
:1012B000174913A3D3E90023C1E90223144912A358
:1012C000D3E90023C1E90423124BD3E900231049D9
:1012D000C1E90823104BD3E900230D49C1E90A23D2
:1012E0000E4BD3E900230A49C1E90C23084801F059
:1012F00029FB00BF80BD00BF333333333333D33FCB
:101300009A9999999999C93F7B14AE47E17A743FAC
:1013100040040020C0040020C8040020D0040020A5
:1013200080B500AF02F0A4F900F07AF800F01AFBE3
:1013300000F00CF900F062F900F0B4F900F006FAE0
:1013400000F084FA00F0D4F800F0E2FA254801F049
:10135000E3FA254B1B686422DA63234B1B68642283
:101360001A64224B1B6864225A6308211E4804F049
:10137000A1FB0C211C4804F09DFB00211B4804F03C
:1013800099FB04211A4804F003FD0421194804F0D4
:10139000FFFC0421184804F0FBFC184B1B68DA68BA
:1013A000164B1B6842F02002DA6005F0D5FE144AA5
:1013B0000121C82005F0C7FF0346124A1360124AF4
:1013C0000021124805F012FF0346114A1360114A2A
:1013D0000021114805F00AFF0346104A136005F08A
:1013E000DFFEFEE72C02002058030020A0030020AF
:1013F00080020020C802002010030020E803002023
:1014000070F800083804002028F800089D1C000827
:10141000300400204CF80008591D00083404002056
:1014200080B594B000AF07F12003302200211846A8
:1014300009F007FD07F10C0300221A605A609A6058
:10144000DA601A610023BB60274B1B6C264A43F00D
:1014500080531364244B1B6C03F08053BB60BB6848
:1014600000237B60214B1B68204A43F480431360B8
:101470001E4B1B6803F480437B607B6802233B6246
:101480000123FB6210233B630223BB630023FB6346
:1014900008233B6440237B640223BB640423FB6476
:1014A00007F12003184603F061FD0346002B01D02D
:1014B00000F06EFC0F23FB6002233B61A0237B61E5
:1014C0004FF48053BB610023FB6107F10C03002143
:1014D000184603F0C3FF0346002B01D000F058FC70
:1014E00000BF5037BD4680BD00380240007000404C
:1014F00080B500AF124B134A1A60114B124A5A6062
:101500000F4B00229A600E4B0022DA600C4B4FF416
:1015100080421A610A4B00225A61094B00229A61EB
:10152000074B0022DA61064B00221A62044802F0DF
:1015300079FB0346002B01D000F02AFC00BF80BDE0
:101540002C02002000540040801A060080B58CB0A8
:1015500000AF07F10C0324220021184609F071FCAA
:101560003B1D00221A605A60224B234A1A60214B0D
:1015700000225A601F4B00229A601E4B4FF6FF72EA
:10158000DA601C4B00221A611A4B00225A61194B77
:1015900000229A610323FB6000233B6101237B61EE
:1015A0000023BB610023FB6100233B6201237B62BC
:1015B0000023BB620023FB6207F10C0319460D48B0
:1015C00004F040FB0346002B01D000F0E1FB0023B8
:1015D0007B600023BB603B1D1946064805F024FADA
:1015E0000346002B01D000F0D3FB00BF3037BD46CF
:1015F00080BD00BF800200200000014080B58CB09B
:1016000000AF07F10C0324220021184609F019FC51
:101610003B1D00221A605A60204B214A1A601F4B62
:1016200000225A601D4B00229A601C4B4FF6FF723D
:10163000DA601A4B00221A61184B00229A610323C8
:10164000FB6000233B6101237B610023BB6100231E
:10165000FB6100233B6201237B620023BB6200230A
:10166000FB6207F10C0319460C4804F0EBFA034641
:10167000002B01D000F08CFB00237B600023BB60BB
:101680003B1D1946054805F0CFF90346002B01D054
:1016900000F07EFB00BF3037BD4680BDC802002091
:1016A0000004004080B58CB000AF07F10C03242289
:1016B0000021184609F0C5FB3B1D00221A605A6044
:1016C000204B214A1A601F4B00225A601D4B0022FA
:1016D0009A601C4B4FF6FF72DA601A4B00221A61B7
:1016E000184B00229A610323FB6000233B61012316
:1016F0007B610023BB610023FB6100233B6201236C
:101700007B620023BB620023FB6207F10C031946D6
:101710000C4804F097FA0346002B01D000F038FB88
:1017200000237B600023BB603B1D1946054805F084
:101730007BF90346002B01D000F02AFB00BF3037B5
:10174000BD4680BD100300200008004080B58EB06B
:1017500000AF07F1280300221A605A609A60DA602D
:1017600007F1200300221A605A603B1D00221A6014
:101770005A609A60DA601A615A619A61314B324A52
:101780001A60304B07225A602E4B00229A602D4B74
:101790006322DA602B4B00221A612A4B00229A61E5
:1017A000284804F06DF80346002B01D000F0F0FA51
:1017B0004FF48053BB6207F128031946214804F017
:1017C00027FD0346002B01D000F0E2FA1D4804F08B
:1017D00017F90346002B01D000F0DAFA00233B6230
:1017E00000237B6207F120031946164805F01CF917
:1017F0000346002B01D000F0CBFA60237B6000236E
:10180000BB600023FB6000237B613B1D082219465F
:101810000C4804F03BFC0346002B01D000F0B8FA62
:101820003B1D0C221946074804F030FC0346002BF0
:1018300001D000F0ADFA034801F090FC00BF38374A
:10184000BD4680BD58030020000C004080B58CB020
:1018500000AF07F1200300221A605A609A60DA6034
:101860003B1D00221A605A609A60DA601A615A6160
:101870009A61254B254A1A60234B07225A60224B56
:1018800000229A60204B6322DA601F4B00221A610B
:101890001D4B00229A611C4803F0F2FF0346002B07
:1018A00001D000F075FA4FF480533B6207F120033A
:1018B0001946154804F0ACFC0346002B01D000F09B
:1018C00067FA114804F09CF80346002B01D000F0A1
:1018D0005FFA60237B600023BB600023FB60002372
:1018E0007B613B1D00221946074804F0CFFB0346ED
:1018F000002B01D000F04CFA034801F02FFC00BF90
:101900003037BD4680BD00BFA0030020004001402D
:1019100080B500AF114B124A1A60104B4FF4E13200
:101920005A600E4B00229A600C4B0022DA600B4B7F
:1019300000221A61094B04225A61084B00229A6165
:10194000064B0022DA61054805F0FEF80346002B3D
:1019500001D000F01DFA00BF80BD00BFE8030020E9
:101960000050004080B58CB000AF07F11C0300228E
:101970001A605A609A60DA601A610023BB61354BC5
:101980001B6B344A43F010031363324B1B6B03F0A1
:101990001003BB61BB6900237B612E4B1B6B2D4A7F
:1019A00043F0800313632B4B1B6B03F080037B61BD
:1019B0007B6900233B61274B1B6B264A43F00103E5
:1019C0001363244B1B6B03F001033B613B69002352
:1019D000FB60204B1B6B1F4A43F0080313631D4B36
:1019E0001B6B03F00803FB60FB680023BB60194B13
:1019F0001B6B184A43F004031363164B1B6B03F075
:101A00000403BB60BB6800237B60124B1B6B114A55
:101A100043F0020313630F4B1B6B03F002037B6065
:101A20007B6800224FF460410B4802F0E1F84FF46C
:101A30006043FB6101233B6200237B620023BB62A6
:101A400007F11C031946044801F036FF00BF303788
:101A5000BD4680BD0038024000100240000000007A
:101A600080B584B000AFB88187ED000BB9603B7BD7
:101A7000423B182B00F2D88001A252F823F000BF9D
:101A8000F71A0008291C0008051C0008291C00087A
:101A9000291C0008291C00082D1B0008291C00080F
:101AA000D11B0008D91B00081B1B0008291C0008BB
:101AB000291C0008291C0008E11B00083F1B000826
:101AC000091B0008BF1B0008291C0008291C00086E
:101AD000631B0008E51A0008751B0008291C000894
:101AE000511B00089FED562B9FED551B97ED000BEA
:101AF00000F056F99DE09FED522B9FED531B97EDA3
:101B0000000B00F04DF994E09FED4D2B9FED501B25
:101B100097ED000B00F044F98BE09FED492B9FED12
:101B20004E1B97ED000B00F03BF982E09FED442B3C
:101B30009FED4B1B97ED000B00F032F979E09FED24
:101B4000402B9FED491B97ED000B00F029F970E049
:101B50009FED3B2B9FED461B97ED000B00F020F90E
:101B600067E09FED372B9FED441B97ED000B00F0D6
:101B700017F95EE0444B1B78002B14BF01230023B0
:101B8000DBB283F00103DBB203F00103DAB23E4BB8
:101B90001A703D4B1B78002B08D09FED392B9FED21
:101BA000281B9FED270B00F0FBF842E09FED242B54
:101BB0009FED231B9FED220B00F0F2F839E09FED23
:101BC000202B9FED1F1B9FED1E0B00F0E9F830E06E
:101BD0002E4B01221A702CE02D4B01221A7028E0A6
:101BE000BB68002B05D19FED2B0A002000F038FECA
:101BF0001CE0BB68012B19D19FED270A002000F0E3
:101C00002FFE13E0BB68002B05D19FED220A0120B7
:101C100000F026FE0CE0BB68012B09D19FED1E0AE7
:101C2000012000F01DFE03E000BF02E000BF00E065
:101C300000BF00BF1037BD4680BD00BFAFF30080BE
:101C4000000000000000000000000000008066406E
:101C50000000000000E070400000000000805640DE
:101C60000000000000B0734000000000008046400B
:101C70000000000000E060400000000000206C4018
:101C8000000000000000E03FAA040020A80400209B
:101C9000A90400200000484300008E4280B586B0B1
:101CA00000AF786000237B61244B186807F10801BE
:101CB0000023002205F0BAFB38613B69002B39D1C3
:101CC0003B7A01331E4A13441B7803F00403002BB4
:101CD00023D01C4B1B78002B12D03B7A303BFB608F
:101CE000184B00221A70F868FEF71CFC4FF0000237
:101CF000154BFEF7ABFD02460B461449C1E9002324
:101D0000134B1B78002B08D03B7A303B7B61104B88
:101D100000221A700F4A7B6913600C4B93ED007B15
:101D20000C4B1B681946B0EE470AF0EE670AB8681C
:101D3000FFF796FE322005F0EBFAB5E738040020F5
:101D4000A0F80008A804002000000840B00400200B
:101D5000A9040020B804002080B582B000AF7860EC
:101D600000F0F6FF0A2005F0D3FAF9E780B582B05B
:101D700000AF78607B681B68044A934201D101F090
:101D800099FC00BF0837BD4680BD00BF004401403C
:101D900080B400AF72B600BFFEE700000000000094
:101DA0002DE9B04F92B000AF87ED060B87ED041B15
:101DB00087ED022B96A3D3E90023D7E90401FEF7B0
:101DC0001BFC02460B46104619464FF00002944B8E
:101DD000FEF73CFD02460B4643EC172BB0EE470ADC
:101DE000F0EE670A0CF068FC51EC100B86A3D3E907
:101DF0000023FEF701FC02460B46C7E9002384A33B
:101E0000D3E90023D7E90401FEF7F6FB02460B46AF
:101E1000104619464FF00002814BFEF717FD0246AF
:101E20000B4643EC172BB0EE470AF0EE670A0CF0B6
:101E300097FC51EC100B4FF000027A4BFEF7DCFBE5
:101E400002460B46D7E90001FEF71EFA02460B4692
:101E500010461946D7E90623FEF7CEFB02460B468D
:101E600010461946D7E90223FEF710FA02460B4640
:101E70006D49C1E9002366A3D3E90023D7E9040132
:101E8000FEF7BAFB02460B46104619464FF0000219
:101E9000634BFEF7DBFC02460B4643EC172BB0EE20
:101EA000470AF0EE670A0CF007FC51EC100B5AA33E
:101EB000D3E90023FEF7A0FB02460B46C7E9002347
:101EC00053A3D3E90023D7E90401FEF795FB0246AB
:101ED0000B46104619464FF00002514BFEF7B6FC78
:101EE00002460B4643EC172BB0EE470AF0EE670AAA
:101EF0000CF036FC51EC100B4FF00002494BFEF792
:101F00007BFB02460B46D7E90001FEF7BDF902460E
:101F10000B4610461946D7E90623FEF76DFB02462D
:101F20000B4610461946D7E90223FEF7AFF90246E1
:101F30000B463E49C1E9002335A3D3E90023D7E985
:101F40000401FEF759FB02460B46104619464FF0B6
:101F50000002334BFEF77AFC02460B4643EC172B8C
:101F6000B0EE470AF0EE670A0CF0FAFB51EC100BEA
:101F7000D7E90623FEF740FB02460B4610461946FA
:101F8000D7E90223FEF782F902460B462849C1E948
:101F90000023274BD3E900231146396423F0004383
:101FA0007B64214BD3E900231146B96323F000433E
:101FB000FB631E4BD3E900231146396323F0004332
:101FC0007B63D7E91023C7E90A23D7E90A23D7E9B6
:101FD0000E01FEF7A1FD0346002B02D0D7E90E2328
:101FE00001E0D7E90A23C7E90A23D7E90A23D7E999
:101FF0000C01FEF791FD0346002B1BD0D7E90C2303
:102000001AE000BFAFF30080D7A3703D0AD7EBBF43
:1020100050455254FB210940D7A3703D0AD7EB3FEE
:10202000008066400000E03FC8040020D00400208B
:10203000C0040020D7E90A23C7E90A234FF00002B1
:10204000754BD7E90A01FEF767FD0346002B2ED03A
:10205000D7E90A234FF000006F49FEF7F7FB02466D
:102060000B46C7E908236D4BD3E90001D7E90823E4
:10207000FEF7C2FA02460B466849C1E90023684BE5
:10208000D3E90001D7E90823FEF7B6FA02460B466A
:102090006349C1E90023634BD3E90001D7E9082371
:1020A000FEF7AAFA02460B465E49C1E900235B4BE4
:1020B000D3E900014FF000024FF00003FEF70EFDE0
:1020C0000346002B0DD00021012000F08BF9534B6B
:1020D000D3E90023924623F0004B504BC3E900ABF9
:1020E0000FE04E4BD3E900014FF000024FF0000328
:1020F000FEF712FD0346002B03D00121012000F062
:1021000071F9474BD3E900014FF000024FF0000393
:10211000FEF7E4FC0346002B0DD00021022000F066
:1021200061F93F4BD3E90023904623F000493C4B33
:10213000C3E900890FE03A4BD3E900014FF00002F8
:102140004FF00003FEF7E8FC0346002B03D001210B
:10215000022000F047F9334BD3E900014FF00002B1
:102160004FF00003FEF7BAFC0346002B0DD0002110
:10217000032000F037F92B4BD3E90023144623F05A
:102180000045284BC3E900450FE0264BD3E9000189
:102190004FF000024FF00003FEF7BEFC0346002B99
:1021A00003D00121032000F01DF91C4B93ED007BAF
:1021B000B0EE470AF0EE670A00F072F9B0EE407A2E
:1021C000F0EE607A154B83ED007B154B93ED007BB1
:1021D000B0EE470AF0EE670A00F062F9B0EE407A1E
:1021E000F0EE607A0E4B83ED007B0E4B93ED007B9F
:1021F000B0EE470AF0EE670A00F052F9B0EE407A0E
:10220000F0EE607A074B83ED007BFFF749F800BFE3
:102210004837BD46BDE8B08F0000F03FC004002045
:10222000C8040020D004002080B584B000AFF8605E
:1022300087ED000BFB68012B32D1514BD3E9000134
:10224000D7E90023FEF720F802460B464C49C1E9C6
:1022500000234B4BD3E900014FF00002494BFEF73E
:102260005BFC0346002B03D04FF00002454B13E00C
:10227000434BD3E900014FF000024FF00003FEF79B
:102280002DFC0346002B04D04FF000024FF000035A
:1022900002E03B4BD3E900233949C1E900236AE05E
:1022A000FB68022B32D1384BD3E90001D7E9002378
:1022B000FDF7EAFF02460B463349C1E90023324BE2
:1022C000D3E900014FF000022E4BFEF725FC034638
:1022D000002B03D04FF000022A4B13E02A4BD3E926
:1022E00000014FF000024FF00003FEF7F7FB03463A
:1022F000002B04D04FF000024FF0000302E0224B0D
:10230000D3E900232049C1E9002334E0FB68032B13
:1023100031D11E4BD3E90001D7E90023FDF7B4FF0B
:1023200002460B461949C1E90023184BD3E90001C5
:102330004FF00002134BFEF7EFFB0346002B03D0D8
:102340004FF000020F4B13E0104BD3E900014FF0A8
:1023500000024FF00003FEF7C1FB0346002B04D040
:102360004FF000024FF0000302E0084BD3E90023D6
:102370000649C1E9002300BF1037BD4680BD00BF3C
:102380000800002000005940100000201800002024
:1023900090B587B000AF87ED040B87ED021B87ED8A
:1023A000002B0E4B1C68D7E90401FEF7FDFB03462A
:1023B000E3630A4B1C68D7E90201FEF7F5FB03460D
:1023C0002364074B1C68D7E90001FEF7EDFB0346C9
:1023D000636300BF1C37BD4690BD00BF580300209B
:1023E000A003002080B582B000AF786039607B68C0
:1023F000012B15D13B68012B09D101224FF400417B
:10240000224801F0F5FB224B01221A7008E000225D
:102410004FF400411D4801F0EBFB1D4B00221A70E8
:102420007B68022B15D13B68012B09D101224FF4A7
:102430008041164801F0DCFB164B01221A7008E0BF
:1024400000224FF48041114801F0D2FB114B0022D1
:102450001A707B68032B15D13B68012B09D101222F
:102460004FF40051094801F0C3FB0B4B01221A70D5
:1024700008E000224FF40051044801F0B9FB064B7C
:1024800000221A7000BF0837BD4680BD0010024010
:1024900000000020010000200200002000000000D9
:1024A00080B582B000AF87ED000B0EA3D3E9002307
:1024B000D7E90001FEF7CAF902460B461046194655
:1024C0004FF00002064BFEF797F802460B4643EC2E
:1024D000172BB0EE470AF0EE670A0837BD4680BDFD
:1024E00000004E408A42305B9F20D83F80B588B0C4
:1024F00004AF0346FB710B46BB7113467B717B79BE
:10250000002B01D001237B71244B1868FB799AB210
:102510000A2302930123019307F10F030093012380
:10252000802101F0BBFE0346002B01D0012331E0E6
:10253000BB79012202FA03F35BB263F07F035BB263
:10254000DB435AB2FB7B5BB213405BB2DBB2FB7383
:102550007B7903F00102BB7902FA03F35AB2FB7BE9
:102560005BB213435BB2DBB2FB730C4B1868FB79B5
:102570009AB20A2302930123019307F10F030093F8
:102580000123802101F090FD0346002B01D001239F
:1025900000E0002318461037BD4680BDD804002057
:1025A00080B584B002AF0623FB71094B1868FA1D91
:1025B0000A2300930123002101F078FC0346002B3D
:1025C00001D1002300E0012318460837BD4680BD35
:1025D000D804002080B582B000AF0346FB71FB79C0
:1025E0001A4604210020FFF781FF034618460837EA
:1025F000BD4680BD80B582B000AF0346FB71FB795C
:102600001A4607210020FFF771FF034618460837D6
:10261000BD4680BD80B582B000AF0346FB71FB793B
:102620001A4605210020FFF761FF034618460837C8
:10263000BD4680BD0000000080B588B004AF0346F1
:10264000FB80FB8840F2F552934202D90323FB72D0
:1026500046E0FB88182B02D8FF23FB7240E0FB8882
:1026600007EE903AF8EE677A17EE900AFDF76CFFE6
:102670004FF000022A4BFDF7BFFF02460B4626A192
:10268000D1E90001FEF7E2F802460B461046194672
:102690004FF00002234BFDF7F7FD02460B461046B4
:1026A0001946FEF7A1FA0346FB60F868FDF74CFFF8
:1026B0004FF000021C4BFDF7E9FD02460B4643ECD0
:1026C000172BB0EE470AF0EE670A0CF0A1F853ECB6
:1026D000102B10461946FEF767FA0346DBB2FB7271
:1026E0000120FFF777FF114B18680A23029301239B
:1026F000019307F10B0300930123FE22802101F0D7
:10270000D3FC0020FFF766FF0120FFF773FF0023D3
:1027100018461037BD4680BD0000000084D77741C1
:102720000000B0400000F03F0000E03FD80400206F
:1027300080B588B004AF0346FB710B46BB801346DF
:102740007B80FB799B00DBB20633FB73BB88DBB27B
:102750003B72BB881B0A9BB2DBB27B727B88DBB20D
:10276000BB727B881B0A9BB2DBB2FB720C4B1868F6
:10277000FB7B9AB20A2302930423019307F1080317
:1027800000930123802101F08FFC0346002B01D030
:10279000012300E0002318461037BD4680BD00BF6E
:1027A000D804002080B582B000AF0346FB710B4611
:1027B000BB801346BB71BB88B3F5805F02D340F684
:1027C000FF73BB80BB79002B25D0BB88002B08D1C1
:1027D000FB7900224FF480511846FFF7A9FF03460A
:1027E0003AE0BB8840F6FF72934208D1FB794FF480
:1027F000805200211846FFF79BFF03462CE0BB8860
:10280000C3F57F630F339AB2FB7900211846FFF7B7
:102810008FFF034620E0BB8840F6FF72934208D149
:10282000FB7900224FF480511846FFF781FF0346E1
:1028300012E0BB88002B08D1FB794FF480520021B5
:102840001846FFF775FF034606E0BA88FB790021BA
:102850001846FFF76DFF034618460837BD4680BD92
:1028600080B584B000AF034687ED000AFB71D7ED59
:10287000007AF5EEC07AF1EE10FA02D54FF00003BF
:102880003B60D7ED007A9FED207AF4EEC77AF1EE47
:1028900010FA01DD1D4B3B603868FDF755FE18A3AB
:1028A000D3E90023FDF7A8FE02460B461046194661
:1028B0004FF00002164BFDF7C9FF02460B461046CB
:1028C00019464FF00002134BFDF7E0FC02460B46A1
:1028D00010461946FEF788F90346FB60D7ED037AE8
:1028E000FCEEE77A17EE903A99B2FB79002218468F
:1028F000FFF758FF034618461037BD4680BD00BF9E
:1029000000000000006078400000344300003443C1
:102910000080664000805B4080B582B000AF786088
:10292000074A7B681360FFF73BFE3020FFF784FE09
:102930000120FFF76FFE002318460837BD4680BD13
:10294000D804002080B483B000AF78607B68D3E9FE
:1029500000231349C1E900237B68D3E9022311490D
:10296000C1E900237B68D3E904230F49C1E90023AF
:102970007B68D3E908230D49C1E900237B68D3E9CB
:102980000A230B49C1E900237B68D3E90C230949D9
:10299000C1E9002300BF0C37BD465DF8047B7047DA
:1029A000E0040020E8040020F0040020F8040020E7
:1029B00000050020080500202DE9B04F8AB000AFC7
:1029C00087ED080B87ED061B87ED042B87ED023B97
:1029D00087ED004B4FF000024FF00003D7E90801EC
:1029E000FEF772F80346002B07D04FF00002514B60
:1029F000C7E90623D7E9062391E0D7E90623D7E9FB
:102A00000801FDF741FC02460B464B49C1E9002392
:102A10004A4BD3E90045484BD3E90001D7E90023ED
:102A2000FDF732FC02460B4620462946FDF7E4FD41
:102A300002460B4610461946D7E90423FDF726FC4B
:102A400002460B4614461D463C4BD3E902013A4B65
:102A5000D3E90023FDF7D0FD02460B462046294668
:102A6000FDF714FC02460B4692469B46334BD3E9D6
:102A70000445314BD3E90089D7E9000102460B46F2
:102A8000FDF704FC02460B4640464946FDF7FCFBB9
:102A900002460B4610461946D7E90223FDF7F6FB1E
:102AA00002460B4620462946FDF7A6FD02460B4688
:102AB00050465946FDF7EAFB02460B46C7E9062396
:102AC000D7E90023C7E902231B4BD3E90023C7E959
:102AD00000234FF000021A4BD7E90601FEF71CF85D
:102AE0000346002B03D04FF00002154B01E0D7E95D
:102AF0000623C7E906234FF00002124BD7E906016F
:102B0000FDF7ECFF0346002B03D04FF000020D4B06
:102B100001E0D7E90623C7E90623D7E9062343ECFA
:102B2000172BB0EE470AF0EE670A2837BD46BDE81E
:102B3000B08F00BF000034C010050020400400200A
:102B400000002440000024C080B483B000AF78604F
:102B50007B68032B2FD07B68032B3FDC7B68012B2A
:102B600003D07B68022B13D038E01F4BD3E900233E
:102B70001E49C1E900231E4BD3E900231D49C1E9C9
:102B800000231D4BD3E900231C49C1E9002325E0A4
:102B9000154BD3E900231A49C1E90023144BD3E9AB
:102BA00000231849C1E90023134BD3E90023164938
:102BB000C1E9002312E00C4BD3E900231349C1E91A
:102BC00000230B4BD3E900231149C1E900230A4B31
:102BD000D3E900230F49C1E9002300BF00BF0C3730
:102BE000BD465DF8047B7047580500206005002055
:102BF0003005002018050020500500203805002071
:102C000068050020200500204005002070050020F8
:102C1000280500204805002080B584B000AFF8608A
:102C200087ED000BFB68032B4DD0FB68032B6CDC9E
:102C3000FB68012B03D0FB68022B22D065E0384BE8
:102C400093ED007B374B93ED006B374B93ED005BBF
:102C5000364B93ED004BB0EE453AF0EE653AB0EEF0
:102C6000462AF0EE662A97ED001BB0EE470AF0EE1A
:102C7000670AFFF7A1FE87ED000B0120FFF764FF55
:102C800043E02B4B93ED007B2A4B93ED006B2A4BDB
:102C900093ED005B294B93ED004BB0EE453AF0EE1F
:102CA000653AB0EE462AF0EE662A97ED001BB0EECC
:102CB000470AF0EE670AFFF77FFE87ED000B022060
:102CC000FFF742FF21E01E4B93ED007B1D4B93ED80
:102CD000006B1D4B93ED005B1C4B93ED004BB0EE76
:102CE000453AF0EE653AB0EE462AF0EE662A97EDE8
:102CF000001BB0EE470AF0EE670AFFF75DFE87EDB6
:102D0000000B0320FFF720FF00BFD7E9002343ECAF
:102D1000172BB0EE470AF0EE670A1037BD4680BDAC
:102D2000F804002060050020180500203805002068
:102D30000005002068050020200500204005002037
:102D40000805002070050020280500204805002007
:102D500080B500AF0120FEF74BF9B0EE407AF0EEFF
:102D6000607A404B83ED007B0220FEF741F9B0EE24
:102D7000407AF0EE607A3C4B83ED007B0320FEF757
:102D800037F9B0EE407AF0EE607A384B83ED007B95
:102D9000344B93ED007BB0EE470AF0EE670A01205A
:102DA000FFF73AFFB0EE407AF0EE607A304B83EDF9
:102DB000007B2D4B93ED007BB0EE470AF0EE670AE7
:102DC0000220FFF729FFB0EE407AF0EE607A294B3F
:102DD00083ED007B254B93ED007BB0EE470AF0EED0
:102DE000670A0320FFF718FFB0EE407AF0EE607A32
:102DF000214B83ED007B1E4B93ED007BB0EE470A29
:102E0000F0EE670A0120FFF70FFA1A4B93ED007BF3
:102E1000B0EE470AF0EE670A0220FFF705FA164BFC
:102E200093ED007BB0EE470AF0EE670A0320FFF750
:102E3000FBF9124B93ED007B114B93ED006B114BA3
:102E400093ED005BB0EE452AF0EE652AB0EE461A2F
:102E5000F0EE661AB0EE470AF0EE670AFFF798FA4E
:102E600000BF80BD9004002098040020A004002032
:102E7000780400208004002088040020080000203E
:102E8000100000201800002080B582B000AF0023A1
:102E90007B60124B5B6C114A43F4804353640F4BCD
:102EA0005B6C03F480437B607B6800233B600B4BCF
:102EB0001B6C0A4A43F080531364084B1B6C03F0ED
:102EC00080533B603B6800220F216FF0010000F04F
:102ED000C9FC00BF0837BD4680BD00BF00380240B6
:102EE00080B58AB000AF786007F1140300221A6041
:102EF0005A609A60DA601A617B681B68194A9342CB
:102F00002BD100233B61184B1B6B174A43F0020384
:102F10001363154B1B6B03F002033B613B69C0233A
:102F20007B611223BB610023FB6103233B6204230B
:102F30007B6207F1140319460C4800F0BDFC002326
:102F4000FB60094B1B6C084A43F400131364064BE7
:102F50001B6C03F40013FB60FB6800BF2837BD4601
:102F600080BD00BF00540040003802400004024011
:102F700080B58EB000AF786007F1240300221A609C
:102F80005A609A60DA601A617B681B68504A934203
:102F900035D100233B624F4B5B6C4E4A43F001033B
:102FA00053644C4B5B6C03F001033B623B6A0023B0
:102FB000FB61484B1B6B474A43F010031363454BBF
:102FC0001B6B03F01003FB61FB694FF420637B6212
:102FD0000223BB620023FB6200233B6301237B636C
:102FE00007F1240319463C4800F066FC00220F213B
:102FF000192000F037FC192000F050FC63E07B68DA
:103000001B68364A93422CD10023BB61314B1B6CA9
:10301000304A43F0020313642E4B1B6C03F002038F
:10302000BB61BB6900237B612A4B1B6B294A43F0C0
:1030300001031363274B1B6B03F001037B617B6967
:10304000C0237B620223BB620023FB6200233B633D
:1030500002237B6307F124031946214800F02CFC6E
:1030600031E07B681B681F4A93422CD100233B61EF
:10307000184B1B6C174A43F004031364154B1B6C6D
:1030800003F004033B613B690023FB60114B1B6BA6
:10309000104A43F0080313630E4B1B6B03F0080345
:1030A000FB60FB684FF440537B620223BB6200234A
:1030B000FB6200233B6302237B6307F12403194671
:1030C000094800F0F9FB00BF3837BD4680BD00BF9E
:1030D000000001400038024000100240000400409F
:1030E0000000024000080040000C024080B485B09F
:1030F00000AF78607B681B68154A93420ED10023AD
:10310000FB60144B1B6C134A43F008031364114B10
:103110001B6C03F00803FB60FB6812E07B681B6814
:103120000D4A93420DD10023BB600A4B5B6C094AE8
:1031300043F480335364074B5B6C03F48033BB6010
:10314000BB6800BF1437BD465DF8047B704700BF05
:10315000000C0040003802400040014080B58AB0B9
:1031600000AF786007F1140300221A605A609A6079
:10317000DA601A617B681B68244A93421ED10023DF
:103180003B61234B1B6B224A43F001031363204B2B
:103190001B6B03F001033B613B690C237B61022342
:1031A000BB610023FB6100233B6202237B6207F1CA
:1031B00014031946174800F07FFB22E07B681B6868
:1031C000154A93421DD10023FB60114B1B6B104A23
:1031D00043F0100313630E4B1B6B03F01003FB60F3
:1031E000FB6820237B610223BB610023FB6100237A
:1031F0003B6203237B6207F114031946074800F082
:103200005BFB00BF2837BD4680BD00BF000C0040FF
:10321000003802400000024000400140001002401F
:1032200080B58AB000AF786007F1140300221A60FD
:103230005A609A60DA601A617B681B68284A934278
:103240004AD100233B61274B1B6C264A43F4801371
:103250001364244B1B6C03F480133B613B69002314
:10326000FB60204B1B6B1F4A43F0040313631D4B91
:103270001B6B03F00403FB60FB680023BB60194B6E
:103280001B6B184A43F008031363164B1B6B03F0C8
:103290000803BB60BB684FF480537B610223BB61B2
:1032A0000023FB6103233B6208237B6207F11403C5
:1032B00019460D4800F000FB04237B610223BB612B
:1032C0000023FB6103233B6208237B6207F11403A5
:1032D0001946064800F0F0FA00BF2837BD4680BD09
:1032E000005000400038024000080240000C02403C
:1032F00080B58CB000AF78600023BB6200237B6296
:103300000023BB602E4B5B6C2D4A43F400335364A7
:103310002B4B5B6C03F40033BB60BB6807F10C0202
:1033200007F110031146184602F078FA02F062FA2B
:10333000B862BB6A234AA2FB03239B0C013B7B625E
:10334000214B224A1A60204B40F2E732DA601E4AD3
:103350007B6A53601C4B00221A611B4B00229A604F
:10336000194B00229A61184802F08AFA034687F83E
:103370002F3097F82F30002B1BD1134802F0D0FAD2
:10338000034687F82F3097F82F30002B11D11920E2
:1033900000F084FA7B680F2B08D800227968192086
:1033A00000F060FA0A4A7B68136002E0012387F8A4
:1033B0002F3097F82F3018463037BD4680BD00BFFC
:1033C0000038024083DE1B437805002000440140A2
:1033D0002400002080B400AFFEE780B400AFFEE719
:1033E00080B400AFFEE780B400AFFEE780B400AF6A
:1033F000FEE780B400AF00BFBD465DF8047B7047B8
:1034000080B500AF034802F051FD034802F04EFDC5
:1034100000BF80BD800200207805002080B483B00A
:1034200000AF0346FB710F4B1B680E4A43F08073DD
:1034300013600D4B1B680C4A43F00103136000BF7F
:103440004FF060431B6803F00103002BF8D04FF0EE
:103450006042FB79136000BF0C37BD465DF8047B0A
:10346000704700BFFCED00E0000E00E080B400AF4C
:1034700001231846BD465DF8047B704780B582B0D5
:1034800000AF7860396007F02FFD034616221A60FE
:103490004FF0FF3318460837BD4680BD80B582B077
:1034A00000AF78604FF0FF317868FFF7E7FFFEE785
:1034B00080B586B000AFF860B9607A6000237B61A8
:1034C0000AE0AFF300800146BB685A1CBA60CAB27A
:1034D0001A707B6901337B617A697B689A42F0DB01
:1034E0007B6818461837BD4680BD80B586B000AFF2
:1034F000F860B9607A6000237B6109E0BB685A1C00
:10350000BA601B781846FFF789FF7B6901337B613E
:103510007A697B689A42F1DB7B6818461837BD46AA
:1035200080BD80B483B000AF78604FF0FF331846A1
:103530000C37BD465DF8047B704780B483B000AFA4
:10354000786039603B684FF400525A600023184697
:103550000C37BD465DF8047B704780B483B000AF84
:103560007860012318460C37BD465DF8047B704730
:1035700080B485B000AFF860B9607A600023184667
:103580001437BD465DF8047B7047000080B586B0F7
:1035900000AF7860144A154BD31A7B617B693B619D
:1035A000134B1B68002B02D1114B124A1A60104BAF
:1035B0001A687B6813443A699A4207D207F094FC70
:1035C00003460C221A604FF0FF3309E0084B1B68DA
:1035D000FB60074B1A687B681344054A1360FB685D
:1035E00018461837BD4680BD0000022000040000C8
:1035F000C00500206850002080B400AF064BD3F80F
:103600008830054A43F47003C2F8883000BFBD46D5
:103610005DF8047B704700BF00ED00E0DFF834D0B8
:10362000FFF7EAFF0C480D490D4A002302E0D45889
:10363000C4500433C4188C42F9D30A4A0A4C0023FC
:1036400001E013600432A242FBD307F053FCFDF704
:1036500067FE70470000022000000020F8010020F3
:10366000B0FE0008F801002064500020FEE70000D2
:1036700080B500AF0E4B1B680D4A43F40073136016
:103680000B4B1B680A4A43F480631360084B1B68AA
:10369000074A43F480731360032000F0D8F80F202A
:1036A000FFF726FEFFF7F0FB0023184680BD00BFA2
:1036B000003C024080B400AF064B1B781A46064B14
:1036C0001B681344044A136000BFBD465DF8047BC9
:1036D000704700BF28000020C405002080B400AF60
:1036E000034B1B681846BD465DF8047B704700BF5E
:1036F000C405002080B485B000AF78607B6803F01B
:103700000703FB600C4BDB68BB60BA684FF6FF0336
:103710001340BB60FB681A02BB68134343F0BF63EE
:1037200043F40033BB60044ABB68D36000BF143766
:10373000BD465DF8047B704700ED00E080B400AF4B
:10374000044BDB681B0A03F007031846BD465DF80F
:10375000047B704700ED00E080B483B000AF034607
:10376000FB7197F90730002B0BDBFB7903F01F028D
:10377000074997F907305B09012000FA02F241F886
:10378000232000BF0C37BD465DF8047B704700BFA7
:1037900000E100E080B483B000AF03463960FB7104
:1037A00097F90730002B0ADB3B68DAB20C4997F92E
:1037B00007301201D2B20B4483F800230AE03B68C1
:1037C000DAB20849FB7903F00F03043B1201D2B2CD
:1037D0000B441A7600BF0C37BD465DF8047B70477A
:1037E00000E100E000ED00E080B489B000AFF860D7
:1037F000B9607A60FB6803F00703FB61FB69C3F102
:103800000703042B28BF0423BB61FB690433062B89
:1038100002D9FB69033B00E000237B614FF0FF32DC
:10382000BB6902FA03F3DA43BB681A407B699A402A
:103830004FF0FF317B6901FA03F3D9437B680B40FA
:10384000134318462437BD465DF8047B704780B5A6
:1038500082B000AF78607868FFF74CFF00BF083790
:10386000BD4680BD80B586B000AF0346B9607A60C2
:10387000FB7300237B61FFF761FF78617A68B968A9
:103880007869FFF7B1FF024697F90F3011461846E5
:10389000FFF780FF00BF1837BD4680BD80B582B0FE
:1038A00000AF0346FB7197F907301846FFF754FF46
:1038B00000BF0837BD4680BD80B489B000AF7860D6
:1038C000396000237B6100233B610023BB6100233F
:1038D000FB616BE10122FB6902FA03F37B613B6848
:1038E0001B687A6913403B613A697B699A4240F0F0
:1038F0005A813B685B6803F00303012B05D03B68EA
:103900005B6803F00303022B30D17B689B68BB61CB
:10391000FB695B00032202FA03F3DB43BA6913403D
:10392000BB613B68DA68FB695B0002FA03F3BA69C2
:103930001343BB617B68BA699A607B685B68BB6153
:103940000122FB6902FA03F3DB43BA691340BB614E
:103950003B685B681B0903F00102FB6902FA03F391
:10396000BA691343BB617B68BA695A603B685B689C
:1039700003F00303032B17D07B68DB68BB61FB6993
:103980005B00032202FA03F3DB43BA691340BB6115
:103990003B689A68FB695B0002FA03F3BA69134358
:1039A000BB617B68BA69DA603B685B6803F003035C
:1039B000022B23D1FB69DA087B68083253F82230E6
:1039C000BB61FB6903F007039B000F2202FA03F3BC
:1039D000DB43BA691340BB613B681A69FB6903F0BA
:1039E00007039B0002FA03F3BA691343BB61FB6947
:1039F000DA087B680832B96943F822107B681B68D3
:103A0000BB61FB695B00032202FA03F3DB43BA6983
:103A10001340BB613B685B6803F00302FB695B001A
:103A200002FA03F3BA691343BB617B68BA691A608F
:103A30003B685B6803F44033002B00F0B480002344
:103A4000FB60604B5B6C5F4A43F4804353645D4BA7
:103A50005B6C03F48043FB60FB685B4AFB699B087B
:103A6000023352F82330BB61FB6903F003039B0070
:103A70000F2202FA03F3DB43BA691340BB617B6890
:103A8000524A93422BD07B68514A934225D07B689F
:103A9000504A93421FD07B684F4A934219D07B68AB
:103AA0004E4A934213D07B684D4A93420DD07B68B7
:103AB0004C4A934207D07B684B4A934201D107237B
:103AC0000EE008230CE006230AE0052308E00423A7
:103AD00006E0032304E0022302E0012300E00023C8
:103AE000FA6902F0030292009340BA691343BB6182
:103AF0003549FB699B080233BA6941F823203B4BE7
:103B00009B68BB613B69DB43BA691340BB613B689F
:103B10005B6803F48013002B03D0BA693B6913433D
:103B2000BB61324ABB699360304BDB68BB613B6968
:103B3000DB43BA691340BB613B685B6803F4001365
:103B4000002B03D0BA693B691343BB61274ABB69A9
:103B5000D360264B5B68BB613B69DB43BA691340AA
:103B6000BB613B685B6803F40033002B03D0BA6988
:103B70003B691343BB611D4ABB6953601B4B1B6808
:103B8000BB613B69DB43BA691340BB613B685B685F
:103B900003F48033002B03D0BA693B691343BB6144
:103BA000124ABB691360FB690133FB61FB690F2B90
:103BB0007FF690AE00BF00BF2437BD465DF8047BA2
:103BC000704700BF0038024000380140000002404A
:103BD0000004024000080240000C024000100240B5
:103BE0000014024000180240001C0240003C01404A
:103BF00080B483B000AF78600B467B8013467B7047
:103C00007B78002B03D07A887B689A6103E07B88FD
:103C10001A047B689A6100BF0C37BD465DF8047BCF
:103C20007047000080B584B000AF78607B68002BDF
:103C300001D101232BE17B6893F83D30DBB2002BEF
:103C400006D17B68002283F83C207868FFF748F9AA
:103C50007B68242283F83D207B681B681A687B6898
:103C60001B6822F001021A607B681B681A687B6877
:103C70001B6842F400421A607B681B681A687B6804
:103C80001B6822F400421A6001F0A0FDF8607B6816
:103C90005B68814A934207D8FB68804A934294BF8D
:103CA00001230023DBB206E0FB687D4A934294BF08
:103CB00001230023DBB2002B01D00123E7E0FB68E6
:103CC000784AA2FB03239B0CBB607B681B685B6884
:103CD00023F03F017B681B68BA680A435A607B681F
:103CE0001B681B6A23F03F017B685B686A4A93424A
:103CF00002D8BB68013309E0BB684FF4967202FB3F
:103D000003F3694AA2FB03239B0901337A68126813
:103D10000B4313627B681B68DB6923F44F4222F07C
:103D2000FF027B685B685C498B4219D8FB68591EAF
:103D30007B685B685B00B1FBF3F3591C40F6FC73D6
:103D40000B40002B0AD0FB68591E7B685B685B0048
:103D5000B1FBF3F30133C3F30B0351E004234FE052
:103D60007B689B68002B11D1FB68581E7B685968E3
:103D70000B465B000B44B0FBF3F30133C3F30B03BF
:103D8000002B0CBF01230023DBB212E0FB68581E9E
:103D90007B6859680B469B000B4499000B44B0FBB1
:103DA000F3F30133C3F30B03002B0CBF01230023F8
:103DB000DBB2002B01D0012322E07B689B68002B43
:103DC0000ED1FB68581E7B6859680B465B000B449C
:103DD000B0FBF3F30133C3F30B0343F400430FE0F1
:103DE000FB68581E7B6859680B469B000B44990082
:103DF0000B44B0FBF3F30133C3F30B0343F4404331
:103E0000796809681343CB617B681B681B6823F0E2
:103E1000C0017B68DA697B681B6A1A437B681B6890
:103E20000A431A607B681B689B6823F4034323F0F2
:103E3000FF037A6811697A68D26811437A68126858
:103E40000B4393607B681B68DB6823F0FF017B6892
:103E50005A697B689B691A437B681B680A43DA606E
:103E60007B681B681A687B681B6842F001021A6055
:103E70007B6800221A647B68202283F83D207B68DF
:103E800000221A637B68002283F83E200023184634
:103E90001037BD4680BD00BFA08601007F841E0094
:103EA000FF083D0083DE1B43D34D621080B588B010
:103EB00002AFF8607A601A460B467B8113463B815D
:103EC000FFF70CFC7861FB6893F83D30DBB2202BE8
:103ED00040F0E0807B690093192301227049F86863
:103EE00000F00EFE0346002B01D00223D3E0FB6856
:103EF00093F83C30012B01D10223CCE0FB68012276
:103F000083F83C20FB681B681B6803F00103012B4E
:103F100007D0FB681B681A68FB681B6842F0010247
:103F20001A60FB681B681A68FB681B6822F4006251
:103F30001A60FB68212283F83D20FB68102283F879
:103F40003E20FB6800221A64FB687A685A62FB68AC
:103F50003A895A85FB685B8D9AB2FB681A85FB68C3
:103F6000504ADA6279897B693A6AF86800F0C8FBDE
:103F70000346002B01D001238DE000233B61FB6849
:103F80001B685B693B61FB681B689B693B613B6924
:103F900066E07A69396AF86800F0CCFE0346002BC7
:103FA0000DD0FB681B6C042B07D1FB681B681A68DB
:103FB000FB681B6842F400721A6001236BE0FB6827
:103FC0005B6A1A78FB681B681A61FB685B6A5A1C9B
:103FD000FB685A62FB685B8D9BB2013B9AB2FB683F
:103FE0005A85FB681B8D013B9AB2FB681A85FB68FA
:103FF0001B685B6903F00403042B1BD1FB681B8D5A
:10400000002B17D0FB685B6A1A78FB681B681A6183
:10401000FB685B6A5A1CFB685A62FB685B8D9BB24B
:10402000013B9AB2FB685A85FB681B8D013B9AB233
:10403000FB681A857A69396AF86800F0C3FE03469E
:10404000002B0DD0FB681B6C042B07D1FB681B6891
:104050001A68FB681B6842F400721A6001231AE0B8
:10406000FB681B8D002B94D1FB681B681A68FB68EA
:104070001B6842F400721A60FB68202283F83D201E
:10408000FB68002283F83E20FB68002283F83C2076
:10409000002300E0022318461837BD4680BD00BF4C
:1040A000020010000000FFFF80B588B002AFF8608A
:1040B000084611461A4603467B810B463B81134650
:1040C000FB80FFF70BFB7861FB6893F83D30DBB2B8
:1040D000202B40F0D9807B690093192301226D4980
:1040E000F86800F00DFD0346002B01D00223CCE060
:1040F000FB6893F83C30012B01D10223C5E0FB683B
:10410000012283F83C20FB681B681B6803F0010355
:10411000012B07D0FB681B681A68FB681B6842F01C
:1041200001021A60FB681B681A68FB681B6822F4AE
:1041300000621A60FB68212283F83D20FB68402260
:1041400083F83E20FB6800221A64FB683A6A5A62D0
:10415000FB68BA8C5A85FB685B8D9AB2FB681A853E
:10416000FB684D4ADA62F8883A8979897B6901935C
:10417000BB6A00930346F86800F044FB0346002B3B
:1041800052D0012381E07A69B96AF86800F0D2FD63
:104190000346002B0DD0FB681B6C042B07D1FB687A
:1041A0001B681A68FB681B6842F400721A600123DE
:1041B0006BE0FB685B6A1A78FB681B681A61FB6836
:1041C0005B6A5A1CFB685A62FB681B8D013B9AB202
:1041D000FB681A85FB685B8D9BB2013B9AB2FB685A
:1041E0005A85FB681B685B6903F00403042B1BD131
:1041F000FB681B8D002B17D0FB685B6A1A78FB6885
:104200001B681A61FB685B6A5A1CFB685A62FB6890
:104210001B8D013B9AB2FB681A85FB685B8D9BB2D4
:10422000013B9AB2FB685A85FB681B8D002BAAD113
:104230007A69B96AF86800F0C5FD0346002B0DD015
:10424000FB681B6C042B07D1FB681B681A68FB68B2
:104250001B6842F400721A60012316E0FB681B68B9
:104260001A68FB681B6842F400721A60FB6820221F
:1042700083F83D20FB68002283F83E20FB68002283
:1042800083F83C20002300E0022318461837BD467F
:1042900080BD00BF020010000000FFFF80B58CB0A1
:1042A00002AFF860084611461A4603467B810B466A
:1042B0003B811346FB80FFF711FA7862FB6893F8A5
:1042C0003D30DBB2202B40F014827B6A009319232F
:1042D00001227B49F86800F013FC0346002B01D053
:1042E000022307E2FB6893F83C30012B01D1022343
:1042F00000E2FB68012283F83C20FB681B681B6816
:1043000003F00103012B07D0FB681B681A68FB68E8
:104310001B6842F001021A60FB681B681A68FB68A0
:104320001B6822F400621A60FB68222283F83D2099
:10433000FB68402283F83E20FB6800221A64FB6879
:104340003A6B5A62FB68BA8E5A85FB685B8D9AB2EB
:10435000FB681A85FB685B4ADA62F8883A897989D2
:104360007B6A0193BB6B00930346F86800F0E0FAA8
:104370000346002B01D00123BCE1FB681B8D002B01
:1043800013D100233B62FB681B685B693B62FB68DF
:104390001B689B693B623B6AFB681B681A68FB6889
:1043A0001B6842F400721A6090E1FB681B8D012BC0
:1043B0001BD1FB681B681A68FB681B6822F48062CB
:1043C0001A600023FB61FB681B685B69FB61FB688B
:1043D0001B689B69FB61FB69FB681B681A68FB68CB
:1043E0001B6842F400721A6070E1FB681B8D022B9F
:1043F0001BD1FB681B681A68FB681B6822F480628B
:104400001A60FB681B681A68FB681B6842F400624C
:104410001A600023BB61FB681B685B69BB61FB68BA
:104420001B689B69BB61BB6950E100237B61FB6832
:104430001B685B697B61FB681B689B697B617B69AF
:1044400044E1FB681B8D032B00F2F180FB681B8DA0
:10445000012B23D17A6AB96BF86800F0FBFC0346A4
:10446000002B01D0012345E1FB681B681A69FB683A
:104470005B6AD2B21A70FB685B6A5A1CFB685A62AC
:10448000FB681B8D013B9AB2FB681A85FB685B8D4C
:104490009BB2013B9AB2FB685A8517E1FB681B8D02
:1044A000022B4ED17B6A0093BB6B00220649F86851
:1044B00000F026FB0346002B08D001231AE100BFC1
:1044C000020010000000FFFF04000100FB681B68F1
:1044D0001A68FB681B6842F400721A60FB681B686C
:1044E0001A69FB685B6AD2B21A70FB685B6A5A1C75
:1044F000FB685A62FB681B8D013B9AB2FB681A8508
:10450000FB685B8D9BB2013B9AB2FB685A85FB68E6
:104510001B681A69FB685B6AD2B21A70FB685B6A37
:104520005A1CFB685A62FB681B8D013B9AB2FB6800
:104530001A85FB685B8D9BB2013B9AB2FB685A857A
:10454000C4E07B6A0093BB6B00226C49F86800F002
:10455000D7FA0346002B01D00123CBE0FB681B6890
:104560001A68FB681B6822F480621A60FB681B688B
:104570001A69FB685B6AD2B21A70FB685B6A5A1CE4
:10458000FB685A62FB681B8D013B9AB2FB681A8577
:10459000FB685B8D9BB2013B9AB2FB685A857B6AD4
:1045A0000093BB6B00225549F86800F0A9FA034656
:1045B000002B01D001239DE0FB681B681A68FB6893
:1045C0001B6842F400721A60FB681B681A69FB687A
:1045D0005B6AD2B21A70FB685B6A5A1CFB685A624B
:1045E000FB681B8D013B9AB2FB681A85FB685B8DEB
:1045F0009BB2013B9AB2FB685A85FB681B681A693B
:10460000FB685B6AD2B21A70FB685B6A5A1CFB6873
:104610005A62FB681B8D013B9AB2FB681A85FB68E6
:104620005B8D9BB2013B9AB2FB685A854EE07A6A79
:10463000B96BF86800F00EFC0346002B01D0012393
:1046400058E0FB681B681A69FB685B6AD2B21A7093
:10465000FB685B6A5A1CFB685A62FB681B8D013B56
:104660009AB2FB681A85FB685B8D9BB2013B9AB2DC
:10467000FB685A85FB681B685B6903F00403042B25
:1046800024D1FB681B8D032B07D1FB681B681A68BC
:10469000FB681B6822F480621A60FB681B681A6959
:1046A000FB685B6AD2B21A70FB685B6A5A1CFB68D3
:1046B0005A62FB681B8D013B9AB2FB681A85FB6846
:1046C0005B8D9BB2013B9AB2FB685A85FB681B8DE0
:1046D000002B7FF4B6AEFB68202283F83D20FB68F8
:1046E000002283F83E20FB68002283F83C20002350
:1046F00000E0022318462837BD4680BD04000100B3
:1047000080B588B002AFF8607A603B600B467B8171
:10471000FB68DB6A7B617B69082B06D07B69012B18
:1047200003D07B6913F5803F08D1FB681B681A68CA
:10473000FB681B6842F480721A600BE0FB681B6B1D
:10474000122B07D1FB681B681A68FB681B6842F4D0
:1047500080721A603B6800937B6800224FF0011161
:10476000F86800F0CDF90346002B0DD0FB681B68FC
:104770001B6803F48073B3F5807F03D1FB684FF4AB
:1047800000721A64032335E0FB681B69B3F5804FA0
:1047900008D17B89DBB21A46FB681B6802F0FE0277
:1047A0001A611BE07B89DB11DBB203F00603DBB28D
:1047B00063F00F03DAB2FB681B681A613B687A6822
:1047C0000E49F86800F016FA0346002B01D00123C9
:1047D00010E07B89DAB2FB681B681A613B687A6873
:1047E0000749F86800F006FA0346002B01D00123C0
:1047F00000E0002318461837BD4680BD08000100C0
:104800000200010080B588B002AFF860084611468A
:104810001A4603467B810B463B811346FB80FB68AF
:104820001B681A68FB681B6842F480721A607B6A16
:1048300000933B6A00224FF00111F86800F060F924
:104840000346002B0DD0FB681B681B6803F48073C4
:10485000B3F5807F03D1FB684FF400721A64032321
:104860005FE07B89DBB21A46FB681B6802F0FE0240
:104870001A617B6A3A6A2D49F86800F0BBF9034671
:10488000002B01D001234CE000237B61FB681B68F7
:104890005B697B61FB681B689B697B617B697A6AEA
:1048A000396AF86800F046FA0346002B0DD0FB6821
:1048B0001B6C042B07D1FB681B681A68FB681B681C
:1048C00042F400721A6001232BE0FB88012B05D112
:1048D0003B89DAB2FB681B681A6121E03B891B0A3D
:1048E0009BB2DAB2FB681B681A617A6A396AF868A7
:1048F00000F020FA0346002B0DD0FB681B6C042B44
:1049000007D1FB681B681A68FB681B6842F40072D9
:104910001A60012305E03B89DAB2FB681B681A6163
:10492000002318461837BD4680BD00BF02000100B5
:1049300080B588B002AFF860084611461A460346B3
:104940007B810B463B811346FB80FB681B681A6822
:10495000FB681B6842F480621A60FB681B681A6877
:10496000FB681B6842F480721A607B6A00933B6AA2
:1049700000224FF00111F86800F0C2F80346002B46
:104980000DD0FB681B681B6803F48073B3F5807F50
:1049900003D1FB684FF400721A640323AAE07B89F9
:1049A000DBB21A46FB681B6802F0FE021A617B6AE2
:1049B0003A6A5249F86800F01DF90346002B01D00D
:1049C000012397E000237B61FB681B685B697B61C7
:1049D000FB681B689B697B617B697A6A396AF86846
:1049E00000F0A8F90346002B0DD0FB681B6C042BCC
:1049F00007D1FB681B681A68FB681B6842F40072E9
:104A00001A60012376E0FB88012B05D13B89DAB2DD
:104A1000FB681B681A6121E03B891B0A9BB2DAB272
:104A2000FB681B681A617A6A396AF86800F082F9D3
:104A30000346002B0DD0FB681B6C042B07D1FB68D1
:104A40001B681A68FB681B6842F400721A60012335
:104A500050E03B89DAB2FB681B681A617A6A396AEE
:104A6000F86800F067F90346002B0DD0FB681B6C5B
:104A7000042B07D1FB681B681A68FB681B6842F4AB
:104A800000721A60012335E0FB681B681A68FB6836
:104A90001B6842F480721A607B6A00933B6A0022B2
:104AA0004FF00111F86800F02BF80346002B0DD0F1
:104AB000FB681B681B6803F48073B3F5807F03D128
:104AC000FB684FF400721A64032313E07B89DBB2A6
:104AD00043F00103DAB2FB681B681A617B6A3A6A29
:104AE0000649F86800F086F80346002B01D0012340
:104AF00000E0002318461837BD4680BD02000100C3
:104B000080B584B000AFF860B9603B601346FB71BC
:104B100048E03B68B3F1FF3F44D0FEF7DFFD0246BB
:104B2000BB69D31A3A689A4202D33B68002B39D149
:104B3000BB681B0CDBB2012B0DD1FB681B685B69EA
:104B4000DA43BB6813409BB2002B0CBF0123002348
:104B5000DBB21A460CE0FB681B689B69DA43BB6852
:104B600013409BB2002B0CBF01230023DBB21A467B
:104B7000FB799A4216D1FB6800221A63FB68202257
:104B800083F83D20FB68002283F83E20FB681B6C05
:104B900043F02002FB681A64FB68002283F83C2083
:104BA000012323E0BB681B0CDBB2012B0DD1FB689A
:104BB0001B685B69DA43BB6813409BB2002B0CBFD8
:104BC00001230023DBB21A460CE0FB681B689B69DB
:104BD000DA43BB6813409BB2002B0CBF01230023B8
:104BE000DBB21A46FB799A4293D00023184610375D
:104BF000BD4680BD80B584B000AFF860B9607A6012
:104C00003B6071E0FB681B685B6903F48063B3F58C
:104C1000806F23D1FB681B681A68FB681B6842F42D
:104C200000721A60FB681B686FF480625A61FB684F
:104C300000221A63FB68202283F83D20FB680022D3
:104C400083F83E20FB681B6C43F00402FB681A6487
:104C5000FB68002283F83C20012367E07B68B3F106
:104C6000FF3F41D0FEF73AFD02463B68D31A7A680F
:104C70009A4202D37B68002B36D1BB681B0CDBB297
:104C8000012B0CD1FB681B685B69DA43BB681340DE
:104C90009BB2002B14BF01230023DBB20BE0FB68A7
:104CA0001B689B69DA43BB6813409BB2002B14BF9F
:104CB00001230023DBB2002B16D0FB6800221A630D
:104CC000FB68202283F83D20FB68002283F83E2009
:104CD000FB681B6C43F02002FB681A64FB6800222F
:104CE00083F83C20012321E0BB681B0CDBB2012BC5
:104CF0000CD1FB681B685B69DA43BB6813409BB24D
:104D0000002B14BF01230023DBB20BE0FB681B6800
:104D10009B69DA43BB6813409BB2002B14BF01238D
:104D20000023DBB2002B7FF46DAF00231846103751
:104D3000BD4680BD80B584B000AFF860B9607A60D0
:104D400034E0F86800F0E3F80346002B01D00123BB
:104D500034E0BB68B3F1FF3F28D0FEF7BFFC02464A
:104D60007B68D31ABA689A4202D3BB68002B1DD164
:104D7000FB681B685B6903F08003802B16D0FB681F
:104D800000221A63FB68202283F83D20FB68002282
:104D900083F83E20FB681B6C43F02002FB681A641A
:104DA000FB68002283F83C20012307E0FB681B68B6
:104DB0005B6903F08003802BC3D1002318461037B2
:104DC000BD4680BD80B584B000AFF860B9607A6040
:104DD00034E0F86800F09BF80346002B01D0012373
:104DE00034E0BB68B3F1FF3F28D0FEF777FC024602
:104DF0007B68D31ABA689A4202D3BB68002B1DD1D4
:104E0000FB681B685B6903F00403042B16D0FB6886
:104E100000221A63FB68202283F83D20FB680022F1
:104E200083F83E20FB681B6C43F02002FB681A6489
:104E3000FB68002283F83C20012307E0FB681B6825
:104E40005B6903F00403042BC3D100231846103719
:104E5000BD4680BD80B584B000AFF860B9607A60AF
:104E600049E0FB681B685B6903F01003102B19D144
:104E7000FB681B686FF010025A61FB6800221A631E
:104E8000FB68202283F83D20FB68002283F83E2047
:104E9000FB681A6CFB681A64FB68002283F83C20EC
:104EA000012330E0FEF71AFC02467B68D31ABA6889
:104EB0009A4202D3BB68002B1DD1FB681B685B695B
:104EC00003F04003402B16D0FB6800221A63FB68F6
:104ED000202283F83D20FB68002283F83E20FB68F7
:104EE0001B6C43F02002FB681A64FB68002283F805
:104EF0003C20012307E0FB681B685B6903F040036B
:104F0000402BAED1002318461037BD4680BD80B47B
:104F100083B000AF78607B681B685B6903F48063D3
:104F2000B3F5806F1BD17B681B686FF480625A6198
:104F30007B6800221A637B68202283F83D207B680F
:104F4000002283F83E207B681B6C43F004027B68E0
:104F50001A647B68002283F83C20012300E00023D0
:104F600018460C37BD465DF8047B704780B586B0A7
:104F700000AF78607B68002B01D1012367E27B687A
:104F80001B6803F00103002B75D0884B9B6803F06E
:104F90000C03042B0CD0854B9B6803F00C03082BEF
:104FA00012D1824B5B6803F48003B3F5800F0BD101
:104FB0007E4B1B6803F40033002B5BD07B685B687F
:104FC000002B57D1012342E27B685B68B3F5803F39
:104FD00006D1764B1B68754A43F4803313601DE09D
:104FE0007B685B68B3F5A02F0CD1704B1B686F4AD0
:104FF00043F4802313606D4B1B686C4A43F4803389
:1050000013600BE0694B1B68684A23F4803313601C
:10501000664B1B68654A23F4802313607B685B68DA
:10502000002B13D0FEF75AFB386108E0FEF756FB61
:1050300002463B69D31A642B01D9032307E25B4B79
:105040001B6803F40033002BF0D014E0FEF746FB9E
:10505000386108E0FEF742FB02463B69D31A642B35
:1050600001D90323F3E1514B1B6803F40033002BF8
:10507000F0D100E000BF7B681B6803F00203002B47
:1050800063D04A4B9B6803F00C03002B0BD0474BBB
:105090009B6803F00C03082B1CD1444B5B6803F4A2
:1050A0008003002B16D1414B1B6803F00203002B39
:1050B00005D07B68DB68012B01D00123C7E13B4BA6
:1050C0001B6823F0F8027B681B69DB003749134338
:1050D0000B603AE07B68DB68002B20D0344B012268
:1050E0001A60FEF7FBFA386108E0FEF7F7FA0246AD
:1050F0003B69D31A022B01D90323A8E12B4B1B6870
:1051000003F00203002BF0D0284B1B6823F0F802B9
:105110007B681B69DB00254913430B6015E0244BBA
:1051200000221A60FEF7DAFA386108E0FEF7D6FAD4
:1051300002463B69D31A022B01D9032387E11B4B9B
:105140001B6803F00203002BF0D17B681B6803F09F
:105150000803002B36D07B685B69002B16D0154BFB
:1051600001221A60FEF7BAFA386108E0FEF7B6FAD3
:1051700002463B69D31A022B01D9032367E10B4B8B
:105180005B6F03F00203002BF0D01BE0094B002201
:105190001A60FEF7A3FA38610EE0FEF79FFA0246A6
:1051A0003B69D31A022B07D9032350E10038024090
:1051B00000004742800E4742884B5B6F03F00203BA
:1051C000002BEAD17B681B6803F00403002B00F07E
:1051D00097800023FB75814B1B6C03F08053002BE1
:1051E0000FD10023BB607D4B1B6C7C4A43F0805386
:1051F00013647A4B1B6C03F08053BB60BB680123C4
:10520000FB75774B1B6803F48073002B18D1744B2C
:105210001B68734A43F480731360FEF75FFA3861CA
:1052200008E0FEF75BFA02463B69D31A022B01D96C
:1052300003230CE16A4B1B6803F48073002BF0D04E
:105240007B689B68012B06D1644B1B6F634A43F05C
:10525000010313671CE07B689B68052B0CD15F4B37
:105260001B6F5E4A43F0040313675C4B1B6F5B4A82
:1052700043F0010313670BE0584B1B6F574A23F0B1
:1052800001031367554B1B6F544A23F00403136744
:105290007B689B68002B15D0FEF720FA38610AE086
:1052A000FEF71CFA02463B69D31A41F28832934258
:1052B00001D90323CBE0494B1B6F03F00203002B02
:1052C000EED014E0FEF70AFA38610AE0FEF706FABB
:1052D00002463B69D31A41F28832934201D9032333
:1052E000B5E03E4B1B6F03F00203002BEED1FB7DBC
:1052F000012B05D1394B1B6C384A23F080531364C2
:105300007B689B69002B00F0A180344B9B6803F005
:105310000C03082B5CD07B689B69022B41D1314B7D
:1053200000221A60FEF7DAF9386108E0FEF7D6F9D4
:1053300002463B69D31A022B01D9032387E0274B8E
:105340001B6803F00073002BF0D17B68DA697B687F
:105350001B6A1A437B685B6A9B011A437B689B6AE2
:105360005B08013B1B041A437B68DB6A1B061B4975
:1053700013434B601B4B01221A60FEF7AFF93861F3
:1053800008E0FEF7ABF902463B69D31A022B01D9BC
:1053900003235CE0114B1B6803F00073002BF0D07B
:1053A00054E0104B00221A60FEF798F9386108E0CB
:1053B000FEF794F902463B69D31A022B01D9032365
:1053C00045E0064B1B6803F00073002BF0D13DE075
:1053D0007B689B69012B07D1012338E0003802402C
:1053E00000700040600047421B4B5B68FB607B68BD
:1053F0009B69012B28D0FB6803F480027B68DB6982
:105400009A4221D1FB6803F03F027B681B6A9A42F3
:105410001AD1FA6847F6C07313407A68526A92014B
:10542000934211D1FB6803F440327B689B6A5B08AE
:10543000013B1B049A4207D1FB6803F070627B6852
:10544000DB6A1B069A4201D0012300E000231846C4
:105450001837BD4680BD00BF0038024080B584B01B
:1054600000AF786039607B68002B01D10123CCE06C
:10547000684B1B6803F007033A689A420CD9654BE6
:105480003A68D2B21A70634B1B6803F007033A689C
:105490009A4201D00123B8E07B681B6803F0020345
:1054A000002B20D07B681B6803F00403002B05D081
:1054B000594B9B68584A43F4E05393607B681B68E0
:1054C00003F00803002B05D0534B9B68524A43F46A
:1054D00060439360504B9B6823F0F0027B689B68AD
:1054E0004D4913438B607B681B6803F00103002B5D
:1054F00044D07B685B68012B07D1474B1B6803F4E2
:105500000033002B19D101237FE07B685B68022BFD
:1055100003D07B685B68032B07D13F4B1B6803F00C
:105520000073002B09D101236FE03B4B1B6803F094
:105530000203002B01D1012367E0374B9B6823F066
:1055400003027B685B68344913438B60FEF7C6F83F
:10555000F8600AE0FEF7C2F80246FB68D31A41F28F
:105560008832934201D903234FE02B4B9B6803F011
:105570000C027B685B689B009A42EBD1254B1B6851
:1055800003F007033A689A420CD2224B3A68D2B22F
:105590001A70204B1B6803F007033A689A4201D047
:1055A000012332E07B681B6803F00403002B08D062
:1055B000194B9B6823F4E0527B68DB681649134360
:1055C0008B607B681B6803F00803002B09D0124B2B
:1055D0009B6823F460427B681B69DB000E49134320
:1055E0008B6000F021F802460B4B9B681B0903F00F
:1055F0000F030A49CB5C22FA03F3094A1360094BF3
:105600001B681846FDF774FE002318461037BD4688
:1056100080BD00BF003C02400038024088F800080E
:1056200020000020240000202DE9B04F90B000AFF2
:1056300000237B630023FB6300233B630023BB63E6
:10564000594B9B6803F00C03082B0DD0082B00F27C
:10565000A180002B02D0042B03D09BE0534BBB63F3
:105660009BE0534BBB6398E04F4B5B6803F03F03F9
:105670007B634D4B5B6803F48003002B28D04A4BBF
:105680005B689B0900223B627A623B6AC3F30800B5
:105690000021474B03FB01F2002300FB03F31344FB
:1056A000434AA0FB0212FA620A46BA62FA6A13443B
:1056B000FB627B6B0022BB61FA61D7E90623D7E965
:1056C0000A01FBF7E1FA02460B461346FB6353E07F
:1056D000354B5B689B0900223B617A613B69C3F3F0
:1056E000080A4FF0000B52465B464FF000004FF0A7
:1056F0000001590141EAD261500102460B46B2EB6A
:105700000A0863EB0B094FF000024FF000034FEA69
:10571000891343EA98634FEA8812B2EB080463EBFB
:1057200009054FF000024FF00003EB0043EA547309
:10573000E20014461D4614EB0A033B6045EB0B03E5
:105740007B604FF000024FF00003D7E90045294687
:105750008B02214643EA915321468A02104619469C
:105760007B6B0022BB60FA60D7E90223FBF78CFA5F
:1057700002460B461346FB630B4B5B681B0C03F0A6
:10578000030301335B003B63FA6B3B6BB2FBF3F348
:10579000BB6302E0054BBB6300BFBB6B18464037E1
:1057A000BD46BDE8B08F00BF003802400024F400C1
:1057B00040787D0180B400AF034B1B681846BD469E
:1057C0005DF8047B704700BF2000002080B500AF6B
:1057D000FFF7F0FF0246054B9B689B0A03F00703A7
:1057E0000349CB5C22FA03F3184680BD003802401F
:1057F00098F8000880B500AFFFF7DCFF0246054BC4
:105800009B685B0B03F007030349CB5C22FA03F3AD
:10581000184680BD0038024098F8000880B483B074
:1058200000AF786039607B680F221A60124B9B686A
:1058300003F003027B685A600F4B9B6803F0F00291
:105840007B689A600C4B9B6803F4E0527B68DA60DB
:10585000094B9B68DB0803F4E0527B681A61074B35
:105860001B6803F007023B681A6000BF0C37BD4697
:105870005DF8047B704700BF00380240003C0240E6
:1058800080B582B000AF78607B68002B01D1012326
:1058900041E07B6893F83D30DBB2002B06D17B689A
:1058A000002283F83C207868FDF720FC7B68022208
:1058B00083F83D207B681A687B68043319461046DC
:1058C00000F096FD7B68012283F846207B68012268
:1058D00083F83E207B68012283F83F207B68012209
:1058E00083F840207B68012283F841207B680122F5
:1058F00083F842207B68012283F843207B680122E1
:1059000083F844207B68012283F845207B680122CC
:1059100083F83D20002318460837BD4680BD0000AF
:1059200080B485B000AF78607B6893F83D30DBB21F
:10593000012B01D001234EE07B68022283F83D2039
:105940007B681B68DA687B681B6842F00102DA60DA
:105950007B681B68234A934222D07B681B68B3F1A3
:10596000804F1DD07B681B681F4A934218D07B680C
:105970001B681E4A934213D07B681B681C4A9342E3
:105980000ED07B681B681B4A934209D07B681B685A
:10599000194A934204D07B681B68184A934211D17C
:1059A0007B681B689B6803F00703FB60FB68062BA2
:1059B00010D07B681B681A687B681B6842F0010284
:1059C0001A6007E07B681B681A687B681B6842F0F6
:1059D00001021A60002318461437BD465DF8047BA7
:1059E000704700BF00000140000400400008004074
:1059F000000C00400004014000400140001800403D
:105A000080B582B000AF78607B68002B01D10123A4
:105A100041E07B6893F83D30DBB2002B06D17B6818
:105A2000002283F83C20786800F039F87B68022275
:105A300083F83D207B681A687B680433194610465A
:105A400000F0D6FC7B68012283F846207B680122A7
:105A500083F83E207B68012283F83F207B68012287
:105A600083F840207B68012283F841207B68012273
:105A700083F842207B68012283F843207B6801225F
:105A800083F844207B68012283F845207B6801224B
:105A900083F83D20002318460837BD4680BD80B4FA
:105AA00083B000AF786000BF0C37BD465DF8047B63
:105AB0007047000080B584B000AF786039603B6803
:105AC000002B09D17B6893F83E30DBB2012B14BF69
:105AD00001230023DBB222E03B68042B09D17B6861
