:020000040800F2
:10000000000002207D300008C52D0008CB2D00081F
:10001000D12D0008D72D0008DD2D000800000000BC
:10002000000000000000000000000000418C0008FB
:10003000E32D000800000000918E0008F563000821
:10004000CD300008CD300008CD300008CD3000089C
:10005000CD300008CD300008CD300008CD3000088C
:10006000CD300008CD300008CD300008CD3000087C
:10007000CD300008CD300008CD300008CD3000086C
:10008000CD300008CD300008CD300008CD3000085C
:10009000CD300008CD300008CD300008CD3000084C
:1000A000CD300008F12D0008CD300008CD3000081B
:1000B000CD300008CD300008CD300008CD3000082C
:1000C000CD300008CD300008CD300008CD3000081C
:1000D000CD300008CD300008CD300008CD3000080C
:1000E000CD300008CD300008CD300008CD300008FC
:1000F000CD300008CD300008CD300008CD300008EC
:10010000CD300008CD300008CD300008CD300008DB
:10011000CD3000080D2E0008CD300008CD3000088D
:10012000CD300008CD300008CD300008CD300008BB
:10013000CD300008CD300008CD300008CD300008AB
:10014000CD300008CD300008CD300008CD3000089B
:10015000CD300008CD300008CD300008CD3000088B
:10016000CD300008CD300008CD300008CD3000087B
:10017000CD300008CD300008CD3000080000000070
:08018000CD300008CD3000086D
:1001900010B5054C237833B9044B13B10448AFF3C1
:1001A00000800123237010BDF80100200000000032
:1001B000C0EC000808B5034B1BB103490348AFF37B
:1001C000008008BD00000000FC010020C0EC000819
:1001D00001F0FF01102A2BDB10F0070F08D010F8F8
:1001E000013B013A8B422DD010F0070F42B3F6D1FC
:1001F000F0B441EA012141EA014122F007047FF015
:1002000000070023F0E80256083C85EA010586EA6B
:10021000010685FA47F5A3FA87F586FA47F6A5FAA7
:1002200087F68EB9EED1F0BC01F0FF0102F00702B3
:1002300032B110F8013B013A83EA010313B1F8D15E
:100240000020704701387047002D06BF354603383F
:10025000073815F0010F07D1013015F4807F02BF78
:10026000013015F4C03F0130F0BC0138704700BFC9
:10027000034613F8012B002AFBD1181A01387047E6
:1002800081F0004102E000BF83F0004330B54FEA47
:1002900041044FEA430594EA050F08BF90EA020FB4
:1002A0001FBF54EA000C55EA020C7FEA645C7FEA47
:1002B000655C00F0E2804FEA5454D4EB5555B8BF6A
:1002C0006D420CDD2C4480EA020281EA030382EADB
:1002D000000083EA010180EA020281EA0303362D6D
:1002E00088BF30BD11F0004F4FEA01314FF4801C40
:1002F0004CEA113102D0404261EB410113F0004F52
:100300004FEA03334CEA133302D0524263EB430308
:1003100094EA050F00F0A780A4F10104D5F1200EA6
:100320000DDB02FA0EFC22FA05F2801841F1000101
:1003300003FA0EF2801843FA05F359410EE0A5F1D5
:1003400020050EF1200E012A03FA0EFC28BF4CF006
:10035000020C43FA05F3C01851EBE37101F00045BC
:1003600007D54FF0000EDCF1000C7EEB00006EEBC9
:100370000101B1F5801F1BD3B1F5001F0CD3490853
:100380005FEA30004FEA3C0C04F101044FEA4452AA
:1003900012F5800F80F09A80BCF1004F08BF5FEA31
:1003A000500C50F1000041EB045141EA050130BD11
:1003B0005FEA4C0C404141EB0101013C28BFB1F523
:1003C000801FE9D291F0000F04BF01460020B1FA6E
:1003D00081F308BF2033A3F10B03B3F120020CDA41
:1003E0000C3208DD02F1140CC2F10C0201FA0CF01F
:1003F00021FA02F10CE002F11402D8BFC2F1200C84
:1004000001FA02F120FA0CFCDCBF41EA0C01904039
:10041000E41AA2BF01EB0451294330BD6FEA040482
:100420001F3C1CDA0C340EDC04F11404C4F120026D
:1004300020FA04F001FA02F340EA030021FA04F37F
:1004400045EA030130BDC4F10C04C4F1200220FAD6
:1004500002F001FA04F340EA0300294630BD21FA14
:1004600004F0294630BD94F0000F83F4801306BFDA
:1004700081F480110134013D4EE77FEA645C18BFCE
:100480007FEA655C29D094EA050F08BF90EA020F65
:1004900005D054EA000C04BF1946104630BD91EA5D
:1004A000030F1EBF0021002030BD5FEA545C05D160
:1004B0004000494128BF41F0004130BD14F580049F
:1004C0003CBF01F5801130BD01F0004545F0FE4113
:1004D00041F470014FF0000030BD7FEA645C1ABF48
:1004E000194610467FEA655C1CBF0B46024650EA7F
:1004F000013406BF52EA033591EA030F41F40021AB
:1005000030BD00BF90F0000F04BF0021704730B530
:100510004FF4806404F132044FF000054FF0000105
:1005200050E700BF90F0000F04BF0021704730B5C6
:100530004FF4806404F1320410F0004548BF40429B
:100540004FF000013EE700BF42004FEAE2014FEAF0
:1005500031014FEA02701FBF12F07F4393F07F4FCB
:1005600081F06051704732F07F4208BF704793F0CE
:100570007F4F04BF41F40021704730B54FF46074E1
:1005800001F0004521F000411CE700BF50EA0102E4
:1005900008BF704730B54FF000050AE050EA01028D
:1005A00008BF704730B511F0004502D5404261EBFD
:1005B00041014FF4806404F132045FEA915C3FF43E
:1005C000D8AE4FF003025FEADC0C18BF03325FEADB
:1005D000DC0C18BF033202EBDC02C2F1200300FA8C
:1005E00003FC20FA02F001FA03FE40EA0E0021FAB1
:1005F00002F11444BDE600BF70B54FF0FF0C4CF49F
:10060000E06C1CEA11541DBF1CEA135594EA0C0F50
:1006100095EA0C0F00F0DEF82C4481EA030621EA8B
:100620004C5123EA4C5350EA013518BF52EA0335C6
:1006300041F4801143F4801338D0A0FB02CE4FF078
:100640000005E1FB02E506F00042E0FB03E54FF0A8
:100650000006E1FB03569CF0000F18BF4EF0010EA0
:10066000A4F1FF04B6F5007F64F5407404D25FEA9C
:100670004E0E6D4146EB060642EAC62141EA55514F
:100680004FEAC52040EA5E504FEACE2EB4F1FD0C91
:1006900088BFBCF5E06F1ED8BEF1004F08BF5FEA0F
:1006A000500E50F1000041EB045170BD06F00046C1
:1006B00046EA010140EA020081EA0301B4EB5C046E
:1006C000C2BFD4EB0C0541EA045170BD41F4801166
:1006D0004FF0000E013C00F3AB8014F1360FDEBF8B
:1006E000002001F0004170BDC4F10004203C35DA67
:1006F0000C341BDC04F11404C4F1200500FA05F3EA
:1007000020FA04F001FA05F240EA020001F000428A
:1007100021F0004110EBD37021FA04F642EB060100
:100720005EEA430E08BF20EAD37070BDC4F10C042A
:10073000C4F1200500FA04F320FA05F001FA04F2EE
:1007400040EA020001F0004110EBD37041F10001DA
:100750005EEA430E08BF20EAD37070BDC4F12005E5
:1007600000FA05F24EEA020E20FA04F301FA05F24D
:1007700043EA020321FA04F001F0004121FA04F2F5
:1007800020EA020000EBD3705EEA430E08BF20EAC5
:10079000D37070BD94F0000F0FD101F000464000FF
:1007A00041EB010111F4801F08BF013CF7D041EA81
:1007B000060195F0000F18BF704703F00046520085
:1007C00043EB030313F4801F08BF013DF7D043EA56
:1007D0000603704794EA0C0F0CEA135518BF95EA0C
:1007E0000C0F0CD050EA410618BF52EA4306D1D193
:1007F00081EA030101F000414FF0000070BD50EAB2
:10080000410606BF1046194652EA430619D094EA3B
:100810000C0F02D150EA013613D195EA0C0F05D125
:1008200052EA03361CBF104619460AD181EA030179
:1008300001F0004141F0FE4141F470014FF0000031
:1008400070BD41F0FE4141F4780170BD70B54FF0CC
:10085000FF0C4CF4E06C1CEA11541DBF1CEA13554C
:1008600094EA0C0F95EA0C0F00F0A7F8A4EB05042E
:1008700081EA030E52EA03354FEA013100F0888025
:100880004FEA03334FF0805545EA131343EA1263EE
:100890004FEA022245EA111545EA10654FEA0026A3
:1008A0000EF000419D4208BF964244F1FD0404F55C
:1008B000407402D25B084FEA3202B61A65EB0305B8
:1008C0005B084FEA32024FF480104FF4002CB6EB75
:1008D000020E75EB030E22BFB61A754640EA0C00F5
:1008E0005B084FEA3202B6EB020E75EB030E22BF35
:1008F000B61A754640EA5C005B084FEA3202B6EB76
:10090000020E75EB030E22BFB61A754640EA9C0034
:100910005B084FEA3202B6EB020E75EB030E22BF04
:10092000B61A754640EADC0055EA060E18D04FEAC2
:10093000051545EA16754FEA06164FEAC30343EA62
:1009400052734FEAC2025FEA1C1CC0D111F4801F2F
:100950000BD141EA00014FF000004FF0004CB6E728
:1009600011F4801F04BF01430020B4F1FD0C88BFC7
:10097000BCF5E06F3FF6AFAEB5EB030C04BFB6EBD2
:10098000020C5FEA500C50F1000041EB045170BDC5
:100990000EF0004E4EEA113114EB5C04C2BFD4EBF2
:1009A0000C0541EA045170BD41F480114FF0000E76
:1009B000013C90E645EA060E8DE60CEA135594EAF2
:1009C0000C0F08BF95EA0C0F3FF43BAF94EA0C0FF5
:1009D0000AD150EA01347FF434AF95EA0C0F7FF46A
:1009E00025AF104619462CE795EA0C0F06D152EABE
:1009F00003353FF4FDAE1046194622E750EA4106A2
:100A000018BF52EA43067FF4C5AE50EA41047FF4B2
:100A10000DAF52EA43057FF4EBAE12E74FF0FF3C17
:100A200006E000BF4FF0010C02E000BF4FF0010CE8
:100A30004DF804CD4FEA410C7FEA6C5C4FEA430C61
:100A400018BF7FEA6C5C1BD001B050EA410C0CBFB0
:100A500052EA430C91EA030F02BF90EA020F002012
:100A6000704710F1000F91EA030F58BF994208BF79
:100A700090422CBFD8176FEAE37040F00100704736
:100A80004FEA410C7FEA6C5C02D150EA013C07D18D
:100A90004FEA430C7FEA6C5CD6D152EA033CD3D0D8
:100AA0005DF8040B704700BF8446104662468C46D2
:100AB0001946634600E000BF01B5FFF7B7FF002805
:100AC00048BF10F1000F01BD4DF808EDFFF7F4FF2E
:100AD0000CBF012000205DF808FB00BF4DF808EDB9
:100AE000FFF7EAFF34BF012000205DF808FB00BFDC
:100AF0004DF808EDFFF7E0FF94BF012000205DF8FE
:100B000008FB00BF4DF808EDFFF7CEFF94BF0120B2
:100B100000205DF808FB00BF4DF808EDFFF7C4FFAB
:100B200034BF012000205DF808FB00BF4FEA410CF4
:100B30007FEA6C5C02D150EA013C0AD14FEA430CD7
:100B40007FEA6C5C02D152EA033C02D14FF0000014
:100B500070474FF0010070474FEA410212F5001252
:100B600015D211D56FF47873B3EB625212D94FEAF4
:100B7000C12343F0004343EA505311F0004F23FADE
:100B800002F018BF404270474FF00000704750EA33
:100B9000013005D111F0004008BF6FF000407047F0
:100BA0004FF00000704700BF4A0011D212F500124A
:100BB00011D20DD56FF47873B3EB62520ED44FEAB5
:100BC000C12343F0004343EA505323FA02F0704735
:100BD0004FF00000704750EA013002D14FF0FF3073
:100BE00070474FF0000070474FEA4102B2F1E04316
:100BF00024BFB3F5001CDCF1FE5C0DD901F0004C04
:100C00004FEAC0024CEA5070B2F1004F40EB830053
:100C100008BF20F00100704711F0804F21D113F17F
:100C20003872BCBF01F00040704741F480114FEAB8
:100C30005252C2F11802C2F1200C10FA0CF320FA41
:100C400002F018BF40F001004FEAC1234FEAD3235E
:100C500003FA0CFC40EA0C0023FA02F34FEA4303C8
:100C6000CCE77FEA625307D150EA01331EBF4FF051
:100C7000FE4040F44000704701F0004040F0FE406C
:100C800040F40000704700BF53B94AB9002908BFBB
:100C900000281CBF4FF0FF314FF0FF3000F0A6B925
:100CA000ADF1080C6DE904CE00F03CF8DDF804E08D
:100CB000DDE9022304B0704738B500220023044662
:100CC0000D46FFF70BFF28B920462946BDE83840FE
:100CD00000F00AB8204605F1004100F005F8404256
:100CE00061EB410138BD00BFD0B50C4B0022064678
:100CF0000F46FFF781FCFFF757FF0446FFF702FCA2
:100D0000074B0022FFF778FC02460B463046394677
:100D1000FFF7BAFAFFF748FF2146D0BD0000F03DCB
:100D20000000F0412DE9F047089E0D4604460F46AD
:100D3000002B4AD18A42944665D9B2FA82F343B174
:100D400002FA03FCC3F120029F4020FA02F217438B
:100D50009C404FEA1C4E1FFA8CF5B7FBFEF1220CAB
:100D60000EFB117742EA074201FB05F090420AD9D7
:100D70001CEB020201F1FF3780F01C81904240F22F
:100D8000198102396244121AA4B2B2FBFEF00EFBC2
:100D9000102244EA024400FB05F5A5420AD91CEBE7
:100DA000040400F1FF3280F00781A54240F2048183
:100DB0006444023840EA0140641B00211EB1DC405B
:100DC0000023C6E90043BDE8F0878B4208D9002E16
:100DD00000F0ED800021C6E900050846BDE8F08777
:100DE000B3FA83F1002949D1AB4202D3824200F227
:100DF000F880841A65EB030201201746002EE2D02A
:100E0000C6E90047DFE702B9FFDEB2FA82F3002B42
:100E100040F090808A1A4FEA1C471FFA8CFE01218D
:100E2000B2FBF7F507FB1520220C42EA00420EFB4D
:100E300005F0904208D91CEB020205F1FF3802D2FE
:100E4000904200F2CB804546121AA4B2B2FBF7F0F2
:100E500007FB102244EA02440EFB00FEA64508D917
:100E60001CEB040400F1FF3202D2A64500F2BB8065
:100E70001046A4EB0E0440EA05409FE7C1F12007AD
:100E80008B4022FA07FC4CEA030C05FA01F420FA25
:100E900007F3FD404FEA1C492343B5FBF9F81FFA5D
:100EA0008CFE09FB18551C0C44EA054408FB0EF5A2
:100EB000A54202FA01F200FA01F00BD91CEB04047E
:100EC00008F1FF3A80F08880A54240F28580A8F1C1
:100ED00002086444641B9DB2B4FBF9F309FB13449C
:100EE00045EA044403FB0EFEA64508D91CEB0404A6
:100EF00003F1FF356CD2A6456AD9023B644443EA4C
:100F00000843A3FB0295A4EB0E04AC42C846AE46D0
:100F100056D353D056B1B0EB080264EB0E0404FA7A
:100F200007F7CA40CC401743C6E9007418460021B1
:100F3000BDE8F087C3F1200102FA03FC20FA01F2B8
:100F400025FA01F19D402A434FEA1C471FFA8CFE07
:100F5000B1FBF7F007FB1015110C41EA054100FB4E
:100F60000EF58D4204FA03F408D91CEB010100F1DF
:100F7000FF382FD28D422DD902386144491B92B2DD
:100F8000B1FBF7F507FB151142EA014205FB0EF133
:100F9000914208D91CEB020205F1FF3816D29142AA
:100FA00014D9023D6244521A45EA004138E73146FD
:100FB000304608E73946E6E61046FBE64845A9D242
:100FC000B9EB020865EB0C0E013BA3E74546EAE7E7
:100FD0002B4694E74046D1E7D0467BE7023D62448A
:100FE00032E708460AE76444023842E7704700BF28
:100FF000B0B584B000AF78607B68032B29D07B68E4
:10100000032B36DC7B68012B03D07B68022B10D0CE
:101010002FE06D4B1B78002B02D04FF6FF7200E0E3
:1010200000226A4B1B685A62674B1A78684B1A7029
:101030001FE0684B1B78002B02D04FF6FF7200E0D8
:101040000022654B1B685A62624B1A78604B1A701B
:101050000FE0624B1B78002B02D04FF6FF7200E0CE
:1010600000225F4B1B685A625C4B1A78584B1A700F
:1010700000BF574B1B78184600F0F4F806F016FE38
:10108000F86029E07B68032B17D07B68032B1BDCFF
:101090007B68012B03D07B68022B07D014E04B4BFD
:1010A0001B685B6A9AB24F4B1A800DE04A4B1B6873
:1010B0005B6A9AB24B4B1A8006E0494B1B685B6A2D
:1010C0009AB2484B1A8000BF464B1B88404A1278A0
:1010D0001146184600F092F806F0E8FD0246FB685B
:1010E000D31A142BCED9404B1B681846FFF71AFAB7
:1010F00031A3D3E90023FFF77FFA02460B461446DB
:101100001D46334B1B78002B08D0364B1B88C3F58C
:101110007F43FF331846FFF705FA04E0314B1B8885
:101120001846FFF7EFF922462B46FFF7AFF80246C5
:101130000B461046194622A3D3E90023FFF786FB8E
:1011400002460B46104619464FF00002274BFFF7A8
:1011500053FA02460B46104619464FF00002244B44
:10116000FFF74AFA02460B462249C1E90023214B08
:10117000D3E900014FF000021F4BFFF7CDFC0346FF
:10118000002B04D04FF000024FF0000302E0194B97
:10119000D3E900231749C1E90023164BD3E9002303
:1011A00043EC172BB0EE470AF0EE670A1037BD4646
:1011B000B0BD00BFAFF300800000000000BDEF40F5
:1011C0000000000000F3E640000000202C02002098
:1011D00028020020010000207402002002000020EC
:1011E000BC02002020020020240200200000494010
:1011F00000004E401802002000408F4080B483B0B1
:1012000000AF03460A46FB8013467B717B7983F06F
:101210000103DBB2002B0DD0104B1B88FA889A42D9
:1012200004D20F4B1B6801330D4A13600B4AFB8835
:1012300013800CE0094B1B88FA889A4204D9084BAA
:101240001B680133064A1360044AFB88138000BF01
:101250000C37BD465DF8047B704700BF22020020BA
:101260002402002080B483B000AF0346FB71094B19
:1012700000221A60FB79002B02D04FF6FF7200E0CB
:101280000022054B1A8000BF0C37BD465DF8047B79
:10129000704700BF2402002022020020000000004E
:1012A00080B500AF1A4914A3D3E90023C1E9002394
:1012B000174913A3D3E90023C1E90223144912A358
:1012C000D3E90023C1E90423124BD3E900231049D9
:1012D000C1E90823104BD3E900230D49C1E90A23D2
:1012E0000E4BD3E900230A49C1E90C23084801F059
:1012F00061F800BF80BD00BF333333333333D33F96
:101300009A9999999999C93F7B14AE47E17A743FAC
:10131000E80300206004002068040020700400201E
:1013200080B500AF01F0D4FE00F074F800F0E6FAEA
:1013300000F0D8F800F02EF900F080F900F0D2F9B2
:1013400000F050FA00F0B0FA244B1B686422DA6314
:10135000224B1B6864221A64214B1B6864225A6367
:1013600008211E4802F0C4FF0C211C4802F0C0FFF7
:1013700000211B4802F0BCFF04211A4803F026F9A3
:101380000421194803F022F90421184803F01EF93A
:10139000174B1B68DA68164B1B6842F02002DA60B4
:1013A00005F042F8134A0121C82005F034F903463C
:1013B000114A1360114A0021114805F07FF80346D5
:1013C000104A1360104A0021104805F077F80346D0
:1013D0000F4A136005F04CF8FEE700BF040300203D
:1013E0004C0300202C02002074020020BC020020CC
:1013F0009403002050ED0008E403002008ED0008ED
:101400008D1B0008DC0300202CED0008211C0008C7
:10141000E003002080B594B000AF07F12003302234
:101420000021184608F07DFF07F10C0300221A6026
:101430005A609A60DA601A610023BB60274B1B6C0C
:10144000264A43F080531364244B1B6C03F08053F3
:10145000BB60BB6800237B60214B1B68204A43F4C0
:10146000804313601E4B1B6803F480437B607B68E2
:1014700002233B620123FB6210233B630223BB6315
:101480000023FB6308233B6440237B640223BB648B
:101490000423FB6407F12003184602F085F9034694
:1014A000002B01D000F0D8FB0F23FB6002233B612F
:1014B000A0237B614FF48053BB610023FB6107F1E4
:1014C0000C030021184602F0E7FB0346002B01D075
:1014D00000F0C2FB00BF5037BD4680BD003802405F
:1014E0000070004080B58CB000AF07F10C032422DF
:1014F0000021184608F015FF3B1D00221A605A60B3
:10150000224B234A1A60214B00225A601F4B0022B3
:101510009A601E4B4FF6FF72DA601C4B00221A6174
:101520001A4B00225A61194B00229A610323FB6077
:1015300000233B6101237B610023BB610023FB612E
:1015400000233B6201237B620023BB620023FB621A
:1015500007F10C0319460D4802F092FF0346002BD9
:1015600001D000F079FB00237B600023BB603B1DB2
:101570001946064803F076FE0346002B01D000F022
:101580006BFB00BF3037BD4680BD00BF2C02002082
:101590000000014080B58CB000AF07F10C0324229D
:1015A0000021184608F0BDFE3B1D00221A605A605B
:1015B000204B214A1A601F4B00225A601D4B00220B
:1015C0009A601C4B4FF6FF72DA601A4B00221A61C8
:1015D000184B00229A610323FB6000233B61012327
:1015E0007B610023BB610023FB6100233B6201237D
:1015F0007B620023BB620023FB6207F10C031946E8
:101600000C4802F03DFF0346002B01D000F024FB04
:1016100000237B600023BB603B1D1946054803F097
:1016200021FE0346002B01D000F016FB00BF30372F
:10163000BD4680BD740200200004004080B58CB01F
:1016400000AF07F10C0324220021184608F069FEC0
:101650003B1D00221A605A60204B214A1A601F4B22
:1016600000225A601D4B00229A601C4B4FF6FF72FD
:10167000DA601A4B00221A61184B00229A61032388
:10168000FB6000233B6101237B610023BB610023DE
:10169000FB6100233B6201237B620023BB620023CA
:1016A000FB6207F10C0319460C4802F0E9FE034601
:1016B000002B01D000F0D0FA00237B600023BB6038
:1016C0003B1D1946054803F0CDFD0346002B01D014
:1016D00000F0C2FA00BF3037BD4680BDBC0200201A
:1016E0000008004080B58EB000AF07F1280300224B
:1016F0001A605A609A60DA6007F1200300221A60CB
:101700005A603B1D00221A605A609A60DA601A61C2
:101710005A619A61314B324A1A60304B07225A6043
:101720002E4B00229A602D4B6322DA602B4B002255
:101730001A612A4B00229A61284802F0BFFC034636
:10174000002B01D000F088FA4FF48053BB6207F100
:1017500028031946214803F079F90346002B01D0EC
:1017600000F07AFA1D4802F069FD0346002B01D013
:1017700000F072FA00233B6200237B6207F1200332
:101780001946164803F06EFD0346002B01D000F009
:1017900063FA60237B600023BB600023FB600023AF
:1017A0007B613B1D082219460C4803F08DF8034667
:1017B000002B01D000F050FA3B1D0C2219460748BF
:1017C00003F082F80346002B01D000F045FA0348ED
:1017D00001F0B4F900BF3837BD4680BD04030020D6
:1017E000000C004080B58CB000AF07F12003002250
:1017F0001A605A609A60DA603B1D00221A605A60D3
:101800009A60DA601A615A619A61254B254A1A601A
:10181000234B07225A60224B00229A60204B6322FE
:10182000DA601F4B00221A611D4B00229A611C488E
:1018300002F044FC0346002B01D000F00DFA4FF4F7
:1018400080533B6207F120031946154803F0FEF868
:101850000346002B01D000F0FFF9114802F0EEFC26
:101860000346002B01D000F0F7F960237B600023D2
:10187000BB600023FB6000237B613B1D00221946F7
:10188000074803F021F80346002B01D000F0E4F9EB
:10189000034801F053F900BF3037BD4680BD00BF9B
:1018A0004C0300200040014080B500AF114B124AAC
:1018B0001A60104B4FF416525A600E4B00229A6079
:1018C0000C4B0022DA600B4B00221A61094B0422F8
:1018D0005A61084B00229A61064B0022DA610548E2
:1018E00003F050FD0346002B01D000F0B5F900BF16
:1018F00080BD00BF940300200050004080B58AB036
:1019000000AF07F1140300221A605A609A60DA608F
:101910001A6100233B612E4B1B6B2D4A43F01003D1
:1019200013632B4B1B6B03F010033B613B690023DC
:10193000FB60274B1B6B264A43F080031363244B49
:101940001B6B03F08003FB60FB680023BB60204B34
:101950001B6B1F4A43F0010313631D4B1B6B03F00A
:101960000103BB60BB6800237B60194B1B6B184AEB
:1019700043F008031363164B1B6B03F008037B60F3
:101980007B6800233B60124B1B6B114A43F004033E
:1019900013630F4B1B6B03F004033B603B68002297
:1019A0004FF460410B4801F0E5FE4FF460437B616A
:1019B0000123BB610023FB6100233B6207F1140399
:1019C0001946044801F03AFD00BF2837BD4680BDE6
:1019D000003802400010024080B584B000AFB881EA
:1019E00087ED000B3B7B423B182B00F29C8001A251
:1019F00052F823F06B1A0008271B0008271B000869
:101A0000271B0008271B0008271B0008A11A000835
:101A1000FB1A00081F1B0008271B00088F1A00086C
:101A2000271B0008271B0008271B0008271B00088E
:101A3000B31A00087D1A00080D1B0008271B0008B8
:101A4000271B0008D71A0008591A0008E91A0008CD
:101A5000271B0008C51A00089FED352B9FED361B8C
:101A600097ED000B00F000F95EE09FED312B9FED4C
:101A7000341B97ED000B00F0F7F855E09FED2C2B91
:101A80009FED311B97ED000B00F0EEF84CE09FED61
:101A9000282B9FED2F1B97ED000B00F0E5F843E09E
:101AA0009FED232B9FED2C1B97ED000B00F0DCF836
:101AB0003AE09FED1F2B9FED2A1B97ED000B00F0E6
:101AC000D3F831E09FED1A2B9FED271B97ED000B0C
:101AD00000F0CAF828E09FED162B9FED251B97ED2F
:101AE000000B00F0C1F81FE09FED232B9FED101BB2
:101AF0009FED0F0B00F0B8F816E09FED212B9FED46
:101B00000C1B9FED0B0B00F0AFF80DE09FED082BC9
:101B10009FED071B9FED060B00F0A6F804E01A4BA3
:101B200001221A7000E000BF00BF1037BD4680BD23
:101B300000000000000000000000000000004E4017
:101B40000000000000006E400000000000A0744093
:101B50000000000000C062400000000000002E40B5
:101B60000000000000405A40000000000060684093
:101B70000000000000D07140333333333333D33FA0
:101B8000333333333333D3BF5004002080B586B0B2
:101B900000AF786000237B611C4B186807F10C01D3
:101BA0000023002204F00AFE38613B69002B29D192
:101BB000174B1B78002B1BD03B7B0133154A13447A
:101BC0001B7803F00403002B12D03B7B303B7B617E
:101BD0000F4B00221A707869FEF7A4FC4FF0000248
:101BE0000D4BFEF733FE02460B460C49C1E90023BC
:101BF0000A4B93ED007BB0EE470AF0EE670AF868F7
:101C0000FFF7EAFE322004F0EBFCC5E7E403002016
:101C10005004002080ED000800001440580400200B
:101C200080B582B000AF786000F0CAFD0A2004F0F1
:101C3000D7FCF9E780B582B000AF78607B681B689D
:101C4000044A934201D101F065FA00BF0837BD464E
:101C500080BD00BF0044014080B400AF72B600BF39
:101C6000FEE70000000000002DE9B04F92B000AF89
:101C700087ED060B87ED041B87ED022B96A3D3E9B6
:101C80000023D7E90401FEF7B7FC02460B461046D5
:101C900019464FF00002944BFEF7D8FD02460B4662
:101CA00043EC172BB0EE470AF0EE670A0BF074FF17
:101CB00051EC100B86A3D3E90023FEF79DFC0246EE
:101CC0000B46C7E9002384A3D3E90023D7E9040125
:101CD000FEF792FC02460B46104619464FF00002F2
:101CE000814BFEF7B3FD02460B4643EC172BB0EEDB
:101CF000470AF0EE670A0BF0A3FF51EC100B4FF010
:101D000000027A4BFEF778FC02460B46D7E9000149
:101D1000FEF7BAFA02460B4610461946D7E90623E3
:101D2000FEF76AFC02460B4610461946D7E9022325
:101D3000FEF7ACFA02460B466D49C1E9002366A3E3
:101D4000D3E90023D7E90401FEF756FC02460B460F
:101D5000104619464FF00002634BFEF777FD02462E
:101D60000B4643EC172BB0EE470AF0EE670A0BF078
:101D700013FF51EC100B5AA3D3E90023FEF73CFCF0
:101D800002460B46C7E9002353A3D3E90023D7E952
:101D90000401FEF731FC02460B46104619464FF08F
:101DA0000002514BFEF752FD02460B4643EC172B47
:101DB000B0EE470AF0EE670A0BF042FF51EC100B51
:101DC0004FF00002494BFEF717FC02460B46D7E9DD
:101DD0000001FEF759FA02460B4610461946D7E9AC
:101DE0000623FEF709FC02460B4610461946D7E9C2
:101DF0000223FEF74BFA02460B463E49C1E9002397
:101E000035A3D3E90023D7E90401FEF7F5FB024629
:101E10000B46104619464FF00002334BFEF716FDF5
:101E200002460B4643EC172BB0EE470AF0EE670A6A
:101E30000BF006FF51EC100BD7E90623FEF7DCFB95
:101E400002460B4610461946D7E90223FEF71EFA52
:101E500002460B462849C1E90023274BD3E900235A
:101E60001146396423F000437B64214BD3E90023FE
:101E70001146B96323F00043FB631E4BD3E90023F3
:101E80001146396323F000437B63D7E91023C7E988
:101E90000A23D7E90A23D7E90E01FEF73DFE0346E0
:101EA000002B02D0D7E90E2301E0D7E90A23C7E9C6
:101EB0000A23D7E90A23D7E90C01FEF72DFE0346D2
:101EC000002B1BD0D7E90C231AE000BFAFF3008032
:101ED000D7A3703D0AD7EBBF50455254FB210940B0
:101EE000D7A3703D0AD7EB3F008066400000E03F7B
:101EF000680400207004002060040020D7E90A2351
:101F0000C7E90A234FF00002754BD7E90A01FEF733
:101F100003FE0346002B2ED0D7E90A234FF0000022
:101F20006F49FEF793FC02460B46C7E908236D4B49
:101F3000D3E90001D7E90823FEF75EFB02460B4612
:101F40006849C1E90023684BD3E90001D7E90823B8
:101F5000FEF752FB02460B466349C1E90023634B7F
:101F6000D3E90001D7E90823FEF746FB02460B46FA
:101F70005E49C1E900235B4BD3E900014FF0000249
:101F80004FF00003FEF7AAFD0346002B0DD0002101
:101F9000012000F08BF9534BD3E90023924623F044
:101FA000004B504BC3E900AB0FE04E4BD3E90001AF
:101FB0004FF000024FF00003FEF7AEFD0346002B8A
:101FC00003D00121012000F071F9474BD3E9000152
:101FD0004FF000024FF00003FEF780FD0346002B98
:101FE0000DD00021022000F061F93F4BD3E900231E
:101FF000904623F000493C4BC3E900890FE03A4B7F
:10200000D3E900014FF000024FF00003FEF784FD1A
:102010000346002B03D00121022000F047F9334B87
:10202000D3E900014FF000024FF00003FEF756FD28
:102030000346002B0DD00021032000F037F92B4B75
:10204000D3E90023144623F00045284BC3E900459B
:102050000FE0264BD3E900014FF000024FF00003E0
:10206000FEF75AFD0346002B03D00121032000F0A8
:102070001DF91C4B93ED007BB0EE470AF0EE670AAA
:1020800000F072F9B0EE407AF0EE607A154B83ED15
:10209000007B154B93ED007BB0EE470AF0EE670A2C
:1020A00000F062F9B0EE407AF0EE607A0E4B83ED0C
:1020B000007B0E4B93ED007BB0EE470AF0EE670A13
:1020C00000F052F9B0EE407AF0EE607A074B83ED03
:1020D000007BFFF7E5F800BF4837BD46BDE8B08F8D
:1020E0000000F03F6004002068040020700400201D
:1020F00080B584B000AFF86087ED000BFB68012B62
:1021000032D1514BD3E90001D7E90023FEF7BCF8E7
:1021100002460B464C49C1E900234B4BD3E9000171
:102120004FF00002494BFEF7F7FC0346002B03D0AB
:102130004FF00002454B13E0434BD3E900014FF051
:1021400000024FF00003FEF7C9FC0346002B04D049
:102150004FF000024FF0000302E03B4BD3E90023B5
:102160003949C1E900236AE0FB68022B32D1384BC0
:10217000D3E90001D7E90023FEF786F802460B46B3
:102180003349C1E90023324BD3E900014FF000028B
:102190002E4BFEF7C1FC0346002B03D04FF000028C
:1021A0002A4B13E02A4BD3E900014FF000024FF015
:1021B0000003FEF793FC0346002B04D04FF000020F
:1021C0004FF0000302E0224BD3E900232049C1E98C
:1021D000002334E0FB68032B31D11E4BD3E900010F
:1021E000D7E90023FEF750F802460B461949C1E92A
:1021F0000023184BD3E900014FF00002134BFEF708
:102200008BFC0346002B03D04FF000020F4B13E072
:10221000104BD3E900014FF000024FF00003FEF72E
:102220005DFC0346002B04D04FF000024FF000038A
:1022300002E0084BD3E900230649C1E9002300BFAF
:102240001037BD4680BD00BF080000200000594087
:10225000100000201800002090B587B000AF87ED77
:10226000040B87ED021B87ED002B0E4B1C68D7E992
:102270000401FEF799FC0346E3630A4B1C68D7E9A7
:102280000201FEF791FC03462364074B1C68D7E963
:102290000001FEF789FC0346636300BF1C37BD469F
:1022A00090BD00BF040300204C03002080B582B025
:1022B00000AF786039607B68012B15D13B68012B3A
:1022C00009D101224FF40041224801F053FA224B78
:1022D00001221A7008E000224FF400411D4801F06D
:1022E00049FA1D4B00221A707B68022B15D13B68FE
:1022F000012B09D101224FF48041164801F03AFA2E
:10230000164B01221A7008E000224FF48041114858
:1023100001F030FA114B00221A707B68032B15D1A3
:102320003B68012B09D101224FF40051094801F00B
:1023300021FA0B4B01221A7008E000224FF40051E1
:10234000044801F017FA064B00221A7000BF083744
:10235000BD4680BD001002400000002001000020AA
:10236000020000200000000080B582B000AF87EDC1
:10237000000B0EA3D3E90023D7E90001FEF766FAAC
:1023800002460B46104619464FF00002064BFEF778
:1023900033F902460B4643EC172BB0EE470AF0EE3A
:1023A000670A0837BD4680BD00004E408A42305B58
:1023B0009F20D83F80B483B000AF78607B68D3E9BA
:1023C00000231349C1E900237B68D3E902231149A3
:1023D000C1E900237B68D3E904230F49C1E9002345
:1023E0007B68D3E908230D49C1E900237B68D3E961
:1023F0000A230B49C1E900237B68D3E90C2309496F
:10240000C1E9002300BF0C37BD465DF8047B70476F
:10241000780400208004002088040020900400201C
:1024200098040020A00400202DE9B04F8AB000AF2E
:1024300087ED080B87ED061B87ED042B87ED023B2C
:1024400087ED004B4FF000024FF00003D7E9080181
:10245000FEF73AFB0346002B07D04FF00002514B2A
:10246000C7E90623D7E9062391E0D7E90623D7E990
:102470000801FDF709FF02460B464B49C1E900235D
:102480004A4BD3E90045484BD3E90001D7E9002383
:10249000FDF7FAFE02460B4620462946FEF7ACF849
:1024A00002460B4610461946D7E90423FDF7EEFE17
:1024B00002460B4614461D463C4BD3E902013A4BFB
:1024C000D3E90023FEF798F802460B46204629463A
:1024D000FDF7DCFE02460B4692469B46334BD3E9A2
:1024E0000445314BD3E90089D7E9000102460B4688
:1024F000FDF7CCFE02460B4640464946FDF7C4FEBA
:1025000002460B4610461946D7E90223FDF7BEFEE8
:1025100002460B4620462946FEF76EF802460B4659
:1025200050465946FDF7B2FE02460B46C7E9062360
:10253000D7E90023C7E902231B4BD3E90023C7E9EE
:1025400000234FF000021A4BD7E90601FEF7E4FA28
:102550000346002B03D04FF00002154B01E0D7E9F2
:102560000623C7E906234FF00002124BD7E9060104
:10257000FEF7B4FA0346002B03D04FF000020D4BD8
:1025800001E0D7E90623C7E90623D7E9062343EC90
:10259000172BB0EE470AF0EE670A2837BD46BDE8B4
:1025A000B08F00BF000034C0A8040020E803002062
:1025B00000002440000024C080B483B000AF7860E5
:1025C0007B68032B2FD07B68032B3FDC7B68012BC0
:1025D00003D07B68022B13D038E01F4BD3E90023D4
:1025E0001E49C1E900231E4BD3E900231D49C1E95F
:1025F00000231D4BD3E900231C49C1E9002325E03A
:10260000154BD3E900231A49C1E90023144BD3E940
:1026100000231849C1E90023134BD3E900231649CD
:10262000C1E9002312E00C4BD3E900231349C1E9AF
:1026300000230B4BD3E900231149C1E900230A4BC6
:10264000D3E900230F49C1E9002300BF00BF0C37C5
:10265000BD465DF8047B7047F0040020F8040020BC
:10266000C8040020B0040020E8040020D0040020AA
:1026700000050020B8040020D80400200805002030
:10268000C0040020E004002080B584B000AFF860F2
:1026900087ED000BFB68032B4DD0FB68032B6CDC34
:1026A000FB68012B03D0FB68022B22D065E0384B7E
:1026B00093ED007B374B93ED006B374B93ED005B55
:1026C000364B93ED004BB0EE453AF0EE653AB0EE86
:1026D000462AF0EE662A97ED001BB0EE470AF0EEB0
:1026E000670AFFF7A1FE87ED000B0120FFF764FFEB
:1026F00043E02B4B93ED007B2A4B93ED006B2A4B71
:1027000093ED005B294B93ED004BB0EE453AF0EEB4
:10271000653AB0EE462AF0EE662A97ED001BB0EE61
:10272000470AF0EE670AFFF77FFE87ED000B0220F5
:10273000FFF742FF21E01E4B93ED007B1D4B93ED15
:10274000006B1D4B93ED005B1C4B93ED004BB0EE0B
:10275000453AF0EE653AB0EE462AF0EE662A97ED7D
:10276000001BB0EE470AF0EE670AFFF75DFE87ED4B
:10277000000B0320FFF720FF00BFD7E9002343EC45
:10278000172BB0EE470AF0EE670A1037BD4680BD42
:1027900090040020F8040020B0040020D0040020A1
:1027A0009804002000050020B8040020D804002070
:1027B000A004002008050020C0040020E004002040
:1027C00080B500AF0120FEF713FCB0EE407AF0EECA
:1027D000607A404B83ED007B0220FEF709FCB0EEEF
:1027E000407AF0EE607A3C4B83ED007B0320FEF7ED
:1027F000FFFBB0EE407AF0EE607A384B83ED007B61
:10280000344B93ED007BB0EE470AF0EE670A0120EF
:10281000FFF73AFFB0EE407AF0EE607A304B83ED8E
:10282000007B2D4B93ED007BB0EE470AF0EE670A7C
:102830000220FFF729FFB0EE407AF0EE607A294BD4
:1028400083ED007B254B93ED007BB0EE470AF0EE65
:10285000670A0320FFF718FFB0EE407AF0EE607AC7
:10286000214B83ED007B1E4B93ED007BB0EE470ABE
:10287000F0EE670A0120FFF73BFC1A4B93ED007B5B
:10288000B0EE470AF0EE670A0220FFF731FC164B64
:1028900093ED007BB0EE470AF0EE670A0320FFF7E6
:1028A00027FC124B93ED007B114B93ED006B114B0A
:1028B00093ED005BB0EE452AF0EE652AB0EE461AC5
:1028C000F0EE661AB0EE470AF0EE670AFFF7C4FCB6
:1028D00000BF80BD380400204004002048040020D0
:1028E00020040020280400203004002008000020DC
:1028F000100000201800002080B582B000AF002337
:102900007B60124B5B6C114A43F4804353640F4B62
:102910005B6C03F480437B607B6800233B600B4B64
:102920001B6C0A4A43F080531364084B1B6C03F082
:1029300080533B603B6800220F216FF0010000F0E4
:10294000C1FC00BF0837BD4680BD00BF0038024053
:1029500080B58EB000AF786007F1240300221A60C2
:102960005A609A60DA601A617B681B68504A934229
:1029700035D100233B624F4B5B6C4E4A43F0010361
:1029800053644C4B5B6C03F001033B623B6A0023D6
:10299000FB61484B1B6B474A43F010031363454BE5
:1029A0001B6B03F01003FB61FB694FF420637B6238
:1029B0000223BB620023FB6200233B6301237B6392
:1029C00007F1240319463C4800F038FD00220F218E
:1029D000192000F077FC192000F090FC63E07B6880
:1029E0001B68364A93422CD10023BB61314B1B6CD0
:1029F000304A43F0020313642E4B1B6C03F00203B6
:102A0000BB61BB6900237B612A4B1B6B294A43F0E6
:102A100001031363274B1B6B03F001037B617B698D
:102A2000C0237B620223BB620023FB6200233B6363
:102A300002237B6307F124031946214800F0FEFCC2
:102A400031E07B681B681F4A93422CD100233B6115
:102A5000184B1B6C174A43F004031364154B1B6C93
:102A600003F004033B613B690023FB60114B1B6BCC
:102A7000104A43F0080313630E4B1B6B03F008036B
:102A8000FB60FB684FF440537B620223BB62002370
:102A9000FB6200233B6302237B6307F12403194697
:102AA000094800F0CBFC00BF3837BD4680BD00BFF1
:102AB00000000140003802400010024000040040C5
:102AC0000000024000080040000C024080B485B0C5
:102AD00000AF78607B681B68154A93420ED10023D3
:102AE000FB60144B1B6C134A43F008031364114B37
:102AF0001B6C03F00803FB60FB6812E07B681B683B
:102B00000D4A93420DD10023BB600A4B5B6C094A0E
:102B100043F480335364074B5B6C03F48033BB6036
:102B2000BB6800BF1437BD465DF8047B704700BF2B
:102B3000000C0040003802400040014080B58AB0DF
:102B400000AF786007F1140300221A605A609A609F
:102B5000DA601A617B681B68244A93421ED1002305
:102B60003B61234B1B6B224A43F001031363204B51
:102B70001B6B03F001033B613B690C237B61022368
:102B8000BB610023FB6100233B6202237B6207F1F0
:102B900014031946174800F051FC22E07B681B68BB
:102BA000154A93421DD10023FB60114B1B6B104A49
:102BB00043F0100313630E4B1B6B03F01003FB6019
:102BC000FB6820237B610223BB610023FB610023A0
:102BD0003B6203237B6207F114031946074800F0A8
:102BE0002DFC00BF2837BD4680BD00BF000C004053
:102BF0000038024000000240004001400010024046
:102C000080B58AB000AF786007F1140300221A6023
:102C10005A609A60DA601A617B681B682C4A93429A
:102C200052D100233B612B4B1B6C2A4A43F4801387
:102C30001364284B1B6C03F480133B613B69002336
:102C4000FB60244B1B6B234A43F004031363214BAB
:102C50001B6B03F00403FB60FB680023BB601D4B90
:102C60001B6B1C4A43F0080313631A4B1B6B03F0E6
:102C70000803BB60BB684FF480537B610223BB61D8
:102C80000023FB6103233B6208237B6207F11403EB
:102C90001946114800F0D2FB04237B610223BB617B
:102CA0000023FB6103233B6208237B6207F11403CB
:102CB00019460A4800F0C2FB00220521352000F029
:102CC00001FB352000F01AFB00BF2837BD4680BD50
:102CD000005000400038024000080240000C024052
:102CE00080B58CB000AF78600023BB6200237B62AC
:102CF0000023BB602E4B5B6C2D4A43F400335364BE
:102D00002B4B5B6C03F40033BB60BB6807F10C0218
:102D100007F110031146184601F09EF901F088F9F9
:102D2000B862BB6A234AA2FB03239B0C013B7B6274
:102D3000214B224A1A60204B40F2E732DA601E4AE9
:102D40007B6A53601C4B00221A611B4B00229A6065
:102D5000194B00229A61184801F0B0F9034687F830
:102D60002F3097F82F30002B1BD1134801F0F6F9C4
:102D7000034687F82F3097F82F30002B11D11920F8
:102D800000F0BCFA7B680F2B08D800227968192064
:102D900000F098FA0A4A7B68136002E0012387F882
:102DA0002F3097F82F3018463037BD4680BD00BF12
:102DB0000038024083DE1B43100500200044014020
:102DC0002400002080B400AFFEE780B400AFFEE72F
:102DD00080B400AFFEE780B400AFFEE780B400AF80
:102DE000FEE780B400AF00BFBD465DF8047B7047CE
:102DF00080B500AF034801F077FC034801F074FC94
:102E000000BF80BD2C0200201005002080B582B0DC
:102E100000AF00237B707B785A1CD2B27A701A46BE
:102E20003B46991800230122104802F0FBFA104B90
:102E3000186839460023002203F060FC0D4B1B6824
:102E4000184604F0AFFD78607B68002B07D00A4B72
:102E50004FF080521A60BFF34F8FBFF36F8F03485C
:102E600002F078FB00BF0837BD4680BD9403002008
:102E7000E4030020DC03002004ED00E080B483B014
:102E800000AF0346FB710F4B1B680E4A43F0807383
:102E900013600D4B1B680C4A43F00103136000BF25
:102EA0004FF060431B6803F00103002BF8D04FF094
:102EB0006042FB79136000BF0C37BD465DF8047BB0
:102EC000704700BFFCED00E0000E00E080B400AFF2
:102ED00001231846BD465DF8047B704780B582B07B
:102EE00000AF7860396007F06FFA034616221A6067
:102EF0004FF0FF3318460837BD4680BD80B582B01D
:102F000000AF78604FF0FF317868FFF7E7FFFEE72A
:102F100080B586B000AFF860B9607A6000237B614D
:102F20000AE0AFF300800146BB685A1CBA60CAB21F
:102F30001A707B6901337B617A697B689A42F0DBA6
:102F40007B6818461837BD4680BD80B586B000AF97
:102F5000F860B9607A6000237B6109E0BB685A1CA5
:102F6000BA601B781846FFF789FF7B6901337B61E4
:102F70007A697B689A42F1DB7B6818461837BD4650
:102F800080BD80B483B000AF78604FF0FF33184647
:102F90000C37BD465DF8047B704780B483B000AF4A
:102FA000786039603B684FF400525A60002318463D
:102FB0000C37BD465DF8047B704780B483B000AF2A
:102FC0007860012318460C37BD465DF8047B7047D6
:102FD00080B485B000AFF860B9607A60002318460D
:102FE0001437BD465DF8047B7047000080B586B09D
:102FF00000AF7860144A154BD31A7B617B693B6143
:10300000134B1B68002B02D1114B124A1A60104B54
:103010001A687B6813443A699A4207D207F0D4F9D8
:1030200003460C221A604FF0FF3309E0084B1B687F
:10303000FB60074B1A687B681344054A1360FB6802
:1030400018461837BD4680BD00000220000400006D
:10305000580500200050002080B400AF064BD3F884
:103060008830054A43F47003C2F8883000BFBD467B
:103070005DF8047B704700BF00ED00E0DFF834D05E
:10308000FFF7EAFF0C480D490D4A002302E0D4582F
:10309000C4500433C4188C42F9D30A4A0A4C0023A2
:1030A00001E013600432A242FBD307F093F9FEF76C
:1030B00037F970470000022000000020F8010020CE
:1030C00090F30008F8010020FC4F0020FEE700000C
:1030D00080B500AF0E4B1B680D4A43F400731360BC
:1030E0000B4B1B680A4A43F480631360084B1B6850
:1030F000074A43F480731360032000F0D8F80F20D0
:10310000FFF7EEFDFFF7F8FB0023184680BD00BF78
:10311000003C024080B400AF064B1B781A46064BB9
:103120001B681344044A136000BFBD465DF8047B6E
:10313000704700BF280000205C05002080B400AF6D
:10314000034B1B681846BD465DF8047B704700BF03
:103150005C05002080B485B000AF78607B6803F028
:103160000703FB600C4BDB68BB60BA684FF6FF03DC
:103170001340BB60FB681A02BB68134343F0BF6394
:1031800043F40033BB60044ABB68D36000BF14370C
:10319000BD465DF8047B704700ED00E080B400AFF1
:1031A000044BDB681B0A03F007031846BD465DF8B5
:1031B000047B704700ED00E080B483B000AF0346AD
:1031C000FB7197F90730002B0BDBFB7903F01F0233
:1031D000074997F907305B09012000FA02F241F82C
:1031E000232000BF0C37BD465DF8047B704700BF4D
:1031F00000E100E080B483B000AF03463960FB71AA
:1032000097F90730002B0ADB3B68DAB20C4997F9D3
:1032100007301201D2B20B4483F800230AE03B6866
:10322000DAB20849FB7903F00F03043B1201D2B272
:103230000B441A7600BF0C37BD465DF8047B70471F
:1032400000E100E000ED00E080B489B000AFF8607C
:10325000B9607A60FB6803F00703FB61FB69C3F1A7
:103260000703042B28BF0423BB61FB690433062B2F
:1032700002D9FB69033B00E000237B614FF0FF3282
:10328000BB6902FA03F3DA43BB681A407B699A40D0
:103290004FF0FF317B6901FA03F3D9437B680B40A0
:1032A000134318462437BD465DF8047B704780B54C
:1032B00082B000AF78607868FFF74CFF00BF083736
:1032C000BD4680BD80B586B000AF0346B9607A6068
:1032D000FB7300237B61FFF761FF78617A68B9684F
:1032E0007869FFF7B1FF024697F90F30114618468B
:1032F000FFF780FF00BF1837BD4680BD80B582B0A4
:1033000000AF0346FB7197F907301846FFF754FFEB
:1033100000BF0837BD4680BD80B584B000AF78607F
:103320007B689B6DFB60FFF709FFB8607B6893F8D3
:103330003530DBB2022B08D07B6880225A657B686F
:10334000002283F83420012352E07B681B681A684E
:103350007B681B6822F016021A607B681B685A693A
:103360007B681B6822F080025A617B681B6C002B13
:1033700003D17B689B6C002B07D07B681B681A68A5
:103380007B681B6822F008021A607B681B681A6859
:103390007B681B6822F001021A6013E0FFF7CEFE83
:1033A0000246BB68D31A052B0CD97B6820225A65CC
:1033B0007B68032283F835207B68002283F8342061
:1033C000032315E07B681B681B6803F00103002BD7
:1033D000E4D17B68DB6D3F229A40FB689A607B6892
:1033E000012283F835207B68002283F834200023F3
:1033F00018461037BD4680BD80B483B000AF7860FA
:103400007B6893F83530DBB2022B04D07B688022D6
:103410005A6501230CE07B68052283F835207B6820
:103420001B681A687B681B6822F001021A6000237F
:1034300018460C37BD465DF8047B704780B489B0F0
:1034400000AF7860396000237B6100233B6100237B
:10345000BB610023FB616BE10122FB6902FA03F30C
:103460007B613B681B687A6913403B613A697B6901
:103470009A4240F05A813B685B6803F00303012BDA
:1034800005D03B685B6803F00303022B30D17B68F7
:103490009B68BB61FB695B00032202FA03F3DB4319
:1034A000BA691340BB613B68DA68FB695B0002FAEA
:1034B00003F3BA691343BB617B68BA699A607B689E
:1034C0005B68BB610122FB6902FA03F3DB43BA6963
:1034D0001340BB613B685B681B0903F00102FB6999
:1034E00002FA03F3BA691343BB617B68BA695A6095
:1034F0003B685B6803F00303032B17D07B68DB6832
:10350000BB61FB695B00032202FA03F3DB43BA6988
:103510001340BB613B689A68FB695B0002FA03F3E6
:10352000BA691343BB617B68BA69DA603B685B6860
:1035300003F00303022B23D1FB69DA087B6808320E
:1035400053F82230BB61FB6903F007039B000F2295
:1035500002FA03F3DB43BA691340BB613B681A69A3
:10356000FB6903F007039B0002FA03F3BA691343F4
:10357000BB61FB69DA087B680832B96943F822103D
:103580007B681B68BB61FB695B00032202FA03F3E3
:10359000DB43BA691340BB613B685B6803F003021D
:1035A000FB695B0002FA03F3BA691343BB617B68F2
:1035B000BA691A603B685B6803F44033002B00F083
:1035C000B4800023FB60604B5B6C5F4A43F4804334
:1035D00053645D4B5B6C03F48043FB60FB685B4AA8
:1035E000FB699B08023352F82330BB61FB6903F08F
:1035F00003039B000F2202FA03F3DB43BA69134073
:10360000BB617B68524A93422BD07B68514A9342FC
:1036100025D07B68504A93421FD07B684F4A934223
:1036200019D07B684E4A934213D07B684D4A93422F
:103630000DD07B684C4A934207D07B684B4A93423B
:1036400001D107230EE008230CE006230AE005233E
:1036500008E0042306E0032304E0022302E0012340
:1036600000E00023FA6902F0030292009340BA6975
:103670001343BB613549FB699B080233BA6941F8C2
:1036800023203B4B9B68BB613B69DB43BA6913401A
:10369000BB613B685B6803F48013002B03D0BA69FD
:1036A0003B691343BB61324ABB699360304BDB68B3
:1036B000BB613B69DB43BA691340BB613B685B6834
:1036C00003F40013002B03D0BA693B691343BB61B9
:1036D000274ABB69D360264B5B68BB613B69DB4310
:1036E000BA691340BB613B685B6803F40033002B8D
:1036F00003D0BA693B691343BB611D4ABB69536080
:103700001B4B1B68BB613B69DB43BA691340BB6160
:103710003B685B6803F48033002B03D0BA693B69D4
:103720001343BB61124ABB691360FB690133FB6140
:10373000FB690F2B7FF690AE00BF00BF2437BD465C
:103740005DF8047B704700BF00380240003801403C
:10375000000002400004024000080240000C024049
:10376000001002400014024000180240001C0240F9
:10377000003C014080B483B000AF78600B467B8092
:1037800013467B707B78002B03D07A887B689A6124
:1037900003E07B881A047B689A6100BF0C37BD4642
:1037A0005DF8047B7047000080B586B000AF78609C
:1037B0007B68002B01D1012367E27B681B6803F063
:1037C0000103002B75D0884B9B6803F00C03042B7E
:1037D0000CD0854B9B6803F00C03082B12D1824B55
:1037E0005B6803F48003B3F5800F0BD17E4B1B683D
:1037F00003F40033002B5BD07B685B68002B57D150
:10380000012342E27B685B68B3F5803F06D1764BCB
:103810001B68754A43F4803313601DE07B685B6866
:10382000B3F5A02F0CD1704B1B686F4A43F4802373
:1038300013606D4B1B686C4A43F4803313600BE0DC
:10384000694B1B68684A23F480331360664B1B681E
:10385000654A23F4802313607B685B68002B13D0D8
:10386000FFF76CFC386108E0FFF768FC02463B6933
:10387000D31A642B01D9032307E25B4B1B6803F4C3
:103880000033002BF0D014E0FFF758FC386108E05B
:10389000FFF754FC02463B69D31A642B01D903237A
:1038A000F3E1514B1B6803F40033002BF0D100E02F
:1038B00000BF7B681B6803F00203002B63D04A4BF8
:1038C0009B6803F00C03002B0BD0474B9B6803F065
:1038D0000C03082B1CD1444B5B6803F48003002BC2
:1038E00016D1414B1B6803F00203002B05D07B6807
:1038F000DB68012B01D00123C7E13B4B1B6823F0A0
:10390000F8027B681B69DB00374913430B603AE020
:103910007B68DB68002B20D0344B01221A60FFF754
:103920000DFC386108E0FFF709FC02463B69D31A39
:10393000022B01D90323A8E12B4B1B6803F00203E0
:10394000002BF0D0284B1B6823F0F8027B681B6922
:10395000DB00254913430B6015E0244B00221A605D
:10396000FFF7ECFB386108E0FFF7E8FB02463B6934
:10397000D31A022B01D9032387E11B4B1B6803F0E9
:103980000203002BF0D17B681B6803F00803002BB7
:1039900036D07B685B69002B16D0154B01221A606C
:1039A000FFF7CCFB386108E0FFF7C8FB02463B6934
:1039B000D31A022B01D9032367E10B4B5B6F03F092
:1039C0000203002BF0D01BE0094B00221A60FFF726
:1039D000B5FB38610EE0FFF7B1FB02463B69D31A35
:1039E000022B07D9032350E1003802400000474270
:1039F000800E4742884B5B6F03F00203002BEAD135
:103A00007B681B6803F00403002B00F09780002301
:103A1000FB75814B1B6C03F08053002B0FD10023EF
:103A2000BB607D4B1B6C7C4A43F0805313647A4B24
:103A30001B6C03F08053BB60BB680123FB75774BA5
:103A40001B6803F48073002B18D1744B1B68734AF6
:103A500043F480731360FFF771FB386108E0FFF7F0
:103A60006DFB02463B69D31A022B01D903230CE1FB
:103A70006A4B1B6803F48073002BF0D07B689B6853
:103A8000012B06D1644B1B6F634A43F0010313679C
:103A90001CE07B689B68052B0CD15F4B1B6F5E4A5B
:103AA00043F0040313675C4B1B6F5B4A43F0010355
:103AB00013670BE0584B1B6F574A23F00103136742
:103AC000554B1B6F544A23F0040313677B689B68B4
:103AD000002B15D0FFF732FB38610AE0FFF72EFB11
:103AE00002463B69D31A41F28832934201D903233B
:103AF000CBE0494B1B6F03F00203002BEED014E028
:103B0000FFF71CFB38610AE0FFF718FB02463B6930
:103B1000D31A41F28832934201D90323B5E03E4BD8
:103B20001B6F03F00203002BEED1FB7D012B05D1AF
:103B3000394B1B6C384A23F0805313647B689B69B4
:103B4000002B00F0A180344B9B6803F00C03082B82
:103B50005CD07B689B69022B41D1314B00221A60FB
:103B6000FFF7ECFA386108E0FFF7E8FA02463B6934
:103B7000D31A022B01D9032387E0274B1B6803F0DC
:103B80000073002BF0D17B68DA697B681B6A1A43EB
:103B90007B685B6A9B011A437B689B6A5B08013BFD
:103BA0001B041A437B68DB6A1B061B4913434B60EB
:103BB0001B4B01221A60FFF7C1FA386108E0FFF7DA
:103BC000BDFA02463B69D31A022B01D903235CE0FC
:103BD000114B1B6803F00073002BF0D054E0104B26
:103BE00000221A60FFF7AAFA386108E0FFF7A6FA88
:103BF00002463B69D31A022B01D9032345E0064B49
:103C00001B6803F00073002BF0D13DE07B689B69DB
:103C1000012B07D1012338E000380240007000403A
:103C2000600047421B4B5B68FB607B689B69012B14
:103C300028D0FB6803F480027B68DB699A4221D1BB
:103C4000FB6803F03F027B681B6A9A421AD1FA684C
:103C500047F6C07313407A68526A9201934211D1B9
:103C6000FB6803F440327B689B6A5B08013B1B04E2
:103C70009A4207D1FB6803F070627B68DB6A1B061F
:103C80009A4201D0012300E0002318461837BD46B0
:103C900080BD00BF0038024080B584B000AF7860BE
:103CA00039607B68002B01D10123CCE0684B1B6895
:103CB00003F007033A689A420CD9654B3A68D2B2CE
:103CC0001A70634B1B6803F007033A689A4201D0ED
:103CD0000123B8E07B681B6803F00203002B20D0AF
:103CE0007B681B6803F00403002B05D0594B9B68CD
:103CF000584A43F4E05393607B681B6803F0080361
:103D0000002B05D0534B9B68524A43F460439360A9
:103D1000504B9B6823F0F0027B689B684D4913432E
:103D20008B607B681B6803F00103002B44D07B6829
:103D30005B68012B07D1474B1B6803F40033002B52
:103D400019D101237FE07B685B68022B03D07B687D
:103D50005B68032B07D13F4B1B6803F00073002BFC
:103D600009D101236FE03B4B1B6803F00203002BDA
:103D700001D1012367E0374B9B6823F003027B6886
:103D80005B68344913438B60FFF7D8F9F8600AE0A9
:103D9000FFF7D4F90246FB68D31A41F28832934206
:103DA00001D903234FE02B4B9B6803F00C027B6887
:103DB0005B689B009A42EBD1254B1B6803F007031D
:103DC0003A689A420CD2224B3A68D2B21A70204B0F
:103DD0001B6803F007033A689A4201D0012332E0DE
:103DE0007B681B6803F00403002B08D0194B9B6809
:103DF00023F4E0527B68DB68164913438B607B68D1
:103E00001B6803F00803002B09D0124B9B6823F4B6
:103E100060427B681B69DB000E4913438B6000F036
:103E200021F802460B4B9B681B0903F00F030A495C
:103E3000CB5C22FA03F3094A1360094B1B6818464E
:103E4000FEF74EFF002318461037BD4680BD00BF69
:103E5000003C02400038024068ED000820000020CD
:103E6000240000202DE9B04F90B000AF00237B6309
:103E70000023FB6300233B630023BB63594B9B6818
:103E800003F00C03082B0DD0082B00F2A180002BAF
:103E900002D0042B03D09BE0534BBB639BE0534BFE
:103EA000BB6398E04F4B5B6803F03F037B634D4B74
:103EB0005B6803F48003002B28D04A4B5B689B09A6
:103EC00000223B627A623B6AC3F308000021474B41
:103ED00003FB01F2002300FB03F31344434AA0FB5E
:103EE0000212FA620A46BA62FA6A1344FB627B6BF8
:103EF0000022BB61FA61D7E90623D7E90A01FCF782
:103F0000C3FE02460B461346FB6353E0354B5B682A
:103F10009B0900223B617A613B69C3F3080A4FF0B9
:103F2000000B52465B464FF000004FF00001590174
:103F300041EAD261500102460B46B2EB0A0863EB3C
:103F40000B094FF000024FF000034FEA891343EAD8
:103F500098634FEA8812B2EB080463EB09054FF04F
:103F600000024FF00003EB0043EA5473E2001446F2
:103F70001D4614EB0A033B6045EB0B037B604FF0DF
:103F800000024FF00003D7E9004529468B02214685
:103F900043EA915321468A02104619467B6B002260
:103FA000BB60FA60D7E90223FCF76EFE02460B46BF
:103FB0001346FB630B4B5B681B0C03F003030133DD
:103FC0005B003B63FA6B3B6BB2FBF3F3BB6302E05A
:103FD000054BBB6300BFBB6B18464037BD46BDE811
:103FE000B08F00BF003802400024F40040787D010B
:103FF00080B400AF034B1B681846BD465DF8047BD8
:10400000704700BF2000002080B500AFFFF7F0FF31
:104010000246054B9B689B0A03F007030349CB5CF0
:1040200022FA03F3184680BD0038024078ED0008FC
:1040300080B500AFFFF7DCFF0246054B9B685B0BCA
:1040400003F007030349CB5C22FA03F3184680BD53
:104050000038024078ED000880B483B000AF78608B
:1040600039607B680F221A60124B9B6803F00302D1
:104070007B685A600F4B9B6803F0F0027B689A6084
:104080000C4B9B6803F4E0527B68DA60094B9B6839
:10409000DB0803F4E0527B681A61074B1B6803F0EE
:1040A00007023B681A6000BF0C37BD465DF8047B11
:1040B000704700BF00380240003C024080B582B02B
:1040C00000AF78607B68002B01D1012341E07B6861
:1040D00093F83D30DBB2002B06D17B68002283F8D9
:1040E0003C207868FEF7F2FC7B68022283F83D20D2
:1040F0007B681A687B6804331946104600F096FD09
:104100007B68012283F846207B68012283F83E20E9
:104110007B68012283F83F207B68012283F84020DE
:104120007B68012283F841207B68012283F84220CA
:104130007B68012283F843207B68012283F84420B6
:104140007B68012283F845207B68012283F83D20AB
:10415000002318460837BD4680BD000080B485B0F6
:1041600000AF78607B6893F83D30DBB2012B01D063
:1041700001234EE07B68022283F83D207B681B68A8
:10418000DA687B681B6842F00102DA607B681B68B2
:10419000234A934222D07B681B68B3F1804F1DD025
:1041A0007B681B681F4A934218D07B681B681E4AB5
:1041B000934213D07B681B681C4A93420ED07B68E5
:1041C0001B681B4A934209D07B681B68194A9342BB
:1041D00004D07B681B68184A934211D17B681B6826
:1041E0009B6803F00703FB60FB68062B10D07B681D
:1041F0001B681A687B681B6842F001021A6007E0BE
:104200007B681B681A687B681B6842F001021A60B1
:10421000002318461437BD465DF8047B704700BF85
:10422000000001400004004000080040000C004075
:1042300000040140004001400018004080B582B0F9
:1042400000AF78607B68002B01D1012341E07B68DF
:1042500093F83D30DBB2002B06D17B68002283F857
:104260003C20786800F039F87B68022283F83D2012
:104270007B681A687B6804331946104600F0D6FC48
:104280007B68012283F846207B68012283F83E2068
:104290007B68012283F83F207B68012283F840205D
:1042A0007B68012283F841207B68012283F8422049
:1042B0007B68012283F843207B68012283F8442035
:1042C0007B68012283F845207B68012283F83D202A
:1042D000002318460837BD4680BD80B483B000AFC8
:1042E000786000BF0C37BD465DF8047B7047000066
:1042F00080B584B000AF786039603B68002B09D18D
:104300007B6893F83E30DBB2012B14BF01230023FE
:10431000DBB222E03B68042B09D17B6893F83F3085
:10432000DBB2012B14BF01230023DBB215E03B6895
:10433000082B09D17B6893F84030DBB2012B14BF06
:1043400001230023DBB208E07B6893F84130DBB245
:10435000012B14BF01230023DBB2002B01D001236A
:104360007CE03B68002B04D17B68022283F83E206E
:1043700013E03B68042B04D17B68022283F83F20C2
:104380000BE03B68082B04D17B68022283F84020B5
:1043900003E07B68022283F841207B681B680122CE
:1043A0003968184600F038FF7B681B682D4A934235
:1043B00004D07B681B682C4A934201D1012300E0A2
:1043C0000023002B07D07B681B685A6C7B681B6836
:1043D00042F400425A647B681B68224A934222D00E
:1043E0007B681B68B3F1804F1DD07B681B681F4A38
:1043F000934218D07B681B681D4A934213D07B6898
:104400001B681C4A93420ED07B681B68164A934275
:1044100009D07B681B68184A934204D07B681B68EC
:10442000164A934211D17B681B689B6803F007030F
:10443000FB60FB68062B10D07B681B681A687B68E2
:104440001B6842F001021A6007E07B681B681A686B
:104450007B681B6842F001021A600023184610377F
:10446000BD4680BD00000140000401400004004042
:1044700000080040000C00400040014000180040CF
:1044800080B586B000AF786039607B68002B01D1C1
:10449000012397E07B6893F83D30DBB2002B06D117
:1044A0007B68002283F83C207868FEF751FA7B682D
:1044B000022283F83D207B681B689B687A6812683B
:1044C00023F4804323F0070393607B681A687B68BA
:1044D00004331946104600F0A9FB7B681B689B68F3
:1044E0007B617B681B689B693B617B681B681B6AFF
:1044F000FB603B681B687A6913437B613B6923F46B
:10450000407323F003033B613B689A683B689B69F7
:104510001B0213433A6913433B613B6923F4406335
:1045200023F00C033B613B6923F4704323F0F00359
:104530003B613B68DA683B68DB691B0213433A69FD
:1045400013433B613B681B691A013B681B6A1B03F1
:1045500013433A6913433B61FB6823F02203FB607A
:10456000FB6823F08803FB603B685A683B685B6923
:104570001B011343FA681343FB607B681B687A696D
:104580009A607B681B683A699A617B681B68FA6865
:104590001A627B68012283F846207B68012283F837
:1045A0003E207B68012283F83F207B68012283F84C
:1045B00042207B68012283F843207B68012283F834
:1045C0003D20002318461837BD4680BD80B584B015
:1045D00000AF786039607B6893F83E30FB737B688E
:1045E00093F83F30BB737B6893F842307B737B68F2
:1045F00093F843303B733B68002B10D1FB7B012BBE
:1046000002D17B7B012B01D0012369E07B68022270
:1046100083F83E207B68022283F8422031E03B6829
:10462000042B10D1BB7B012B02D13B7B012B01D092
:10463000012355E07B68022283F83F207B68022239
:1046400083F843201DE0FB7B012B08D1BB7B012BB2
:1046500005D17B7B012B02D13B7B012B01D00123B8
:104660003EE07B68022283F83E207B68022283F8CA
:104670003F207B68022283F842207B68022283F875
:1046800043203B68002B03D03B68042B08D00FE08D
:104690007B681B6801220021184600F0BDFD16E072
:1046A0007B681B6801220421184600F0B5FD0EE06E
:1046B0007B681B6801220021184600F0ADFD7B6875
:1046C0001B6801220421184600F0A6FD00BF7B688C
:1046D0001B681A687B681B6842F001021A6000239D
:1046E00018461037BD4680BD80B584B000AF7860F5
:1046F0007B681B68DB68FB607B681B681B69BB60B1
:10470000BB6803F00203002B20D0FB6803F0020318
:10471000002B1BD07B681B686FF002021A617B685C
:1047200001221A777B681B689B6903F00303002B47
:1047300003D0786800F05BFA05E0786800F04DFA85
:10474000786800F05EFA7B6800221A77BB6803F095
:104750000403002B20D0FB6803F00403002B1BD0C4
:104760007B681B686FF004021A617B6802221A776B
:104770007B681B689B6903F44073002B03D0786847
:1047800000F035FA05E0786800F027FA786800F064
:1047900038FA7B6800221A77BB6803F00803002B05
:1047A00020D0FB6803F00803002B1BD07B681B683C
:1047B0006FF008021A617B6804221A777B681B6815
:1047C000DB6903F00303002B03D0786800F00FFAD5
:1047D00005E0786800F001FA786800F012FA7B686A
:1047E00000221A77BB6803F01003002B20D0FB686F
:1047F00003F01003002B1BD07B681B686FF01002C6
:104800001A617B6808221A777B681B68DB6903F4EE
:104810004073002B03D0786800F0E9F905E0786870
:1048200000F0DBF9786800F0ECF97B6800221A7779
:10483000BB6803F00103002B0CD0FB6803F00103FD
:10484000002B07D07B681B686FF001021A61786843
:10485000FDF7F0F9BB6803F08003002B0CD0FB6878
:1048600003F08003002B07D07B681B686FF0800289
:104870001A61786800F07CFDBB6803F04003002BF0
:104880000CD0FB6803F04003002B07D07B681B684B
:104890006FF040021A61786800F0BDF9BB6803F060
:1048A0002003002B0CD0FB6803F02003002B07D063
:1048B0007B681B686FF020021A61786800F04EFD7B
:1048C00000BF1037BD4680BD80B586B000AFF86030
:1048D000B9607A600023FB75FB6893F83C30012BCC
:1048E00001D10223AEE0FB68012283F83C207B6803
:1048F0000C2B00F29F8001A252F823F031490008EE
:10490000354A0008354A0008354A00087149000850
:10491000354A0008354A0008354A0008B3490008FE
:10492000354A0008354A0008354A0008F3490008AE
:10493000FB681B68B968184600F024FAFB681B681E
:104940009A69FB681B6842F008029A61FB681B6861
:104950009A69FB681B6822F004029A61FB681B6875
:104960009969BB681A69FB681B680A439A6164E02D
:10497000FB681B68B968184600F074FAFB681B688E
:104980009A69FB681B6842F400629A61FB681B68C5
:104990009A69FB681B6822F480629A61FB681B6855
:1049A0009969BB681B691A02FB681B680A439A6114
:1049B00043E0FB681B68B968184600F0C9FAFB6859
:1049C0001B68DA69FB681B6842F00802DA61FB6861
:1049D0001B68DA69FB681B6822F00402DA61FB6875
:1049E0001B68D969BB681A69FB681B680A43DA61EE
:1049F00023E0FB681B68B968184600F01DFBFB68E4
:104A00001B68DA69FB681B6842F40062DA61FB68C4
:104A10001B68DA69FB681B6822F48062DA61FB6854
:104A20001B68D969BB681B691A02FB681B680A43CB
:104A3000DA6102E00123FB7500BFFB68002283F806
:104A40003C20FB7D18461837BD4680BD80B584B03C
:104A500000AF786039600023FB737B6893F83C30CB
:104A6000012B01D10223B4E07B68012283F83C20B2
:104A70007B68022283F83D207B681B689B68BB60D3
:104A8000BB6823F07703BB60BB6823F47F43BB6044
:104A90007B681B68BA689A603B681B68B3F5005F67
:104AA0003ED0B3F5005F00F28780B3F5805F00F081
:104AB0008680B3F5805F7FD8702B1AD0702B7BD89F
:104AC000602B50D0602B77D8502B3CD0502B73D814
:104AD000402B58D0402B6FD8302B64D0302B6BD864
:104AE000202B60D0202B67D8002B5CD0102B5AD005
:104AF00062E07B6818683B6899683B685A683B6865
:104B0000DB6800F069FB7B681B689B68BB60BB6867
:104B100043F07703BB607B681B68BA689A604FE01C
:104B20007B6818683B6899683B685A683B68DB6833
:104B300000F052FB7B681B689A687B681B6842F434
:104B400080429A603CE07B6818683B6859683B6823
:104B5000DB681A4600F0C6FA7B681B6850211846CD
:104B600000F01FFB2CE07B6818683B6859683B68C5
:104B7000DB681A4600F0E5FA7B681B68602118467E
:104B800000F00FFB1CE07B6818683B6859683B68C5
:104B9000DB681A4600F0A6FA7B681B6840211846BD
:104BA00000F0FFFA0CE07B681A683B681B68194646
:104BB000104600F0F6FA03E00123FB7300E000BFAB
:104BC0007B68012283F83D207B68002283F83C202B
:104BD000FB7B18461037BD4680BD80B483B000AF64
:104BE000786000BF0C37BD465DF8047B704780B429
:104BF00083B000AF786000BF0C37BD465DF8047B22
:104C0000704780B483B000AF786000BF0C37BD46FA
:104C10005DF8047B704780B483B000AF786000BF5C
:104C20000C37BD465DF8047B7047000080B485B04A
:104C300000AF786039607B681B68FB607B68464A20
:104C4000934213D07B68B3F1804F0FD07B68434A07
:104C500093420BD07B68424A934207D07B68414A1B
:104C6000934203D07B68404A934208D1FB6823F00B
:104C70007003FB603B685B68FA681343FB607B680A
:104C8000354A93422BD07B68B3F1804F27D07B68A5
:104C9000324A934223D07B68314A93421FD07B68CB
:104CA000304A93421BD07B682F4A934217D07B68CF
:104CB0002E4A934213D07B682D4A93420FD07B68D3
:104CC0002C4A93420BD07B682B4A934207D07B68D7
:104CD0002A4A934203D07B68294A934208D1FB6851
:104CE00023F44073FB603B68DB68FA681343FB60A6
:104CF000FB6823F080023B685B691343FB607B68C1
:104D0000FA681A603B689A687B68DA623B681A68DE
:104D10007B689A627B68104A934203D07B68124A90
:104D2000934203D13B681A697B681A637B6801224E
:104D30005A617B681B6903F00103012B05D17B6875
:104D40001B6923F001027B681A6100BF1437BD465E
:104D50005DF8047B704700BF000001400004004084
:104D600000080040000C00400004014000400140E9
:104D7000004401400048014000180040001C004071
:104D80000020004080B487B000AF786039607B6855
:104D90001B6A7B617B681B6A23F001027B681A62D5
:104DA0007B685B683B617B689B69FB60FB6823F009
:104DB0007003FB60FB6823F00303FB603B681B6828
:104DC000FA681343FB607B6923F002037B613B6855
:104DD0009B687A6913437B617B68204A934203D0C6
:104DE0007B681F4A93420CD17B6923F008037B61E7
:104DF0003B68DB687A6913437B617B6923F00403BA
:104E00007B617B68154A934203D07B68144A9342C6
:104E100011D13B6923F480733B613B6923F4007338
:104E20003B613B685B693A6913433B613B689B6943
:104E30003A6913433B617B683A695A607B68FA6858
:104E40009A613B685A687B685A637B687A691A6220
:104E500000BF1C37BD465DF8047B70470000014071
:104E60000004014080B487B000AF786039607B688F
:104E70001B6A7B617B681B6A23F010027B681A62E5
:104E80007B685B683B617B689B69FB60FB6823F424
:104E9000E043FB60FB6823F44073FB603B681B68E6
:104EA0001B02FA681343FB607B6923F020037B61DC
:104EB0003B689B681B017A6913437B617B68224ACC
:104EC000934203D07B68214A93420DD17B6923F042
:104ED00080037B613B68DB681B017A6913437B615C
:104EE0007B6923F040037B617B68174A934203D0C0
:104EF0007B68164A934213D13B6923F480633B617C
:104F00003B6923F400633B613B685B699B003A6942
:104F100013433B613B689B699B003A6913433B61C8
:104F20007B683A695A607B68FA689A613B685A689C
:104F30007B689A637B687A691A6200BF1C37BD463A
:104F40005DF8047B704700BF000001400004014091
:104F500080B487B000AF786039607B681B6A7B6182
:104F60007B681B6A23F480727B681A627B685B68CB
:104F70003B617B68DB69FB60FB6823F07003FB60CF
:104F8000FB6823F00303FB603B681B68FA6813436C
:104F9000FB607B6923F400737B613B689B681B02A9
:104FA0007A6913437B617B68214A934203D07B6813
:104FB000204A93420DD17B6923F400637B613B68F7
:104FC000DB681B027A6913437B617B6923F480638E
:104FD0007B617B68164A934203D07B68154A9342F3
:104FE00013D13B6923F480533B613B6923F40053A5
:104FF0003B613B685B691B013A6913433B613B685A
:105000009B691B013A6913433B617B683A695A60AB
:105010007B68FA68DA613B685A687B68DA637B68A8
:105020007A691A6200BF1C37BD465DF8047B704781
:10503000000001400004014080B487B000AF7860F8
:1050400039607B681B6A3B617B681B6A23F4805272
:105050007B681A627B685B687B617B68DB69FB60ED
:10506000FB6823F4E043FB60FB6823F44073FB60C0
:105070003B681B681B02FA681343FB603B6923F41F
:1050800000533B613B689B681B033A6913433B61D8
:105090007B68124A934203D07B68114A934209D13C
:1050A0007B6923F480437B613B685B699B017A6980
:1050B00013437B617B687A695A607B68FA68DA61BE
:1050C0003B685A687B681A647B683A691A6200BF59
:1050D0001C37BD465DF8047B704700BF00000140EF
:1050E0000004014080B487B000AFF860B9607A6016
:1050F000FB681B6A7B61FB681B6A23F00102FB688B
:105100001A62FB689B693B613B6923F0F0033B61DA
:105110007B681B013A6913433B617B6923F00A03F7
:105120007B617A69BB6813437B61FB683A699A616A
:10513000FB687A691A6200BF1C37BD465DF8047BC4
:10514000704780B487B000AFF860B9607A60FB68E0
:105150001B6A7B61FB681B6A23F01002FB681A6202
:10516000FB689B693B613B6923F470433B617B684F
:105170001B033A6913433B617B6923F0A0037B6106
:10518000BB681B017A6913437B61FB683A699A61CA
:10519000FB687A691A6200BF1C37BD465DF8047B64
:1051A000704780B485B000AF786039607B689B68D9
:1051B000FB60FB6823F07003FB603A68FB681343F5
:1051C00043F00703FB607B68FA689A6000BF1437FE
:1051D000BD465DF8047B704780B487B000AFF860CF
:1051E000B9607A603B60FB689B687B617B6923F4F4
:1051F0007F437B613B681A027B681A43BB68134399
:105200007A6913437B61FB687A699A6000BF1C3737
:10521000BD465DF8047B704780B487B000AFF8608E
:10522000B9607A60BB6803F01F03012202FA03F33E
:105230007B61FB681A6A7B69DB431A40FB681A6270
:10524000FB681A6ABB6803F01F03796801FA03F36D
:105250001A43FB681A6200BF1C37BD465DF8047B29
:105260007047000080B485B000AF786039607B681B
:1052700093F83C30012B01D102235AE07B680122D4
:1052800083F83C207B68022283F83D207B681B6802
:105290005B68FB607B681B689B68BB60FB6823F0F6
:1052A0007003FB603B681B68FA681343FB607B6814
:1052B0001B68FA685A607B681B68214A934222D0B7
:1052C0007B681B68B3F1804F1DD07B681B681D4A4B
:1052D000934218D07B681B681B4A934213D07B68AB
:1052E0001B681A4A93420ED07B681B68184A934287
:1052F00009D07B681B68174A934204D07B681B68FF
:10530000154A93420CD1BB6823F08003BB603B6815
:105310005B68BA681343BB607B681B68BA689A60B5
:105320007B68012283F83D207B68002283F83C20C3
:10533000002318461437BD465DF8047B704700BF54
:10534000000001400004004000080040000C004044
:1053500000040140004001400018004080B483B0C8
:1053600000AF786000BF0C37BD465DF8047B704726
:1053700080B483B000AF786000BF0C37BD465DF8E5
:10538000047B704780B582B000AF78607B68002BEB
:1053900001D1012342E07B6893F84130DBB2002B5E
:1053A00006D17B68002283F840207868FDF728FC4E
:1053B0007B68242283F841207B681B68DA687B685D
:1053C0001B6822F40052DA60786800F075FD7B6893
:1053D0001B681A697B681B6822F490421A617B681B
:1053E0001B685A697B681B6822F02A025A617B6835
:1053F0001B68DA687B681B6842F40052DA607B68DD
:1054000000225A647B68202283F841207B68202296
:1054100083F842207B6800225A630023184608372D
:10542000BD4680BD80B58AB002AFF860B9603B6010
:105430001346FB8000237B61FB6893F84230DBB2AC
:10544000202B40F08180BB68002B02D0FB88002B12
:1054500001D1012379E0FB6800225A64FB68222213
:1054600083F84220FB6800221A63FDF767FE78612B
:10547000FB68FA889A85FB68FA88DA85FB689B687E
:10548000B3F5805F08D1FB681B69002B04D10023B2
:10549000FB61BB68BB6103E0BB68FB610023BB61D0
:1054A00047E03B6800937B6900222021F86800F008
:1054B0000DFB0346002B05D0FB68202283F8422019
:1054C000032342E0FB69002B0CD1FB681B685B687F
:1054D0009BB2C3F308039AB2BB691A80BB6902335B
:1054E000BB611FE0FB689B68B3F5805F07D0FB687A
:1054F0009B68002B0AD1FB681B69002B06D1FB6857
:105500001B685B68DAB2FB691A7008E0FB681B680D
:105510005B68DBB203F07F03DAB2FB691A70FB69E8
:105520000133FB61FB68DB8D9BB2013B9AB2FB68E8
:10553000DA85FB68DB8D9BB2002BB2D1FB682022A1
:1055400083F84220002300E0022318462037BD469E
:1055500080BD000080B5BAB000AF78607B681B6882
:105560001B68C7F8E4307B681B68DB68C7F8E0306D
:105570007B681B685B69C7F8DC300023C7F8D8304C
:105580000023C7F8D430D7F8E43003F00F03C7F88E
:10559000D830D7F8D830002B0FD1D7F8E43003F04B
:1055A0002003002B09D0D7F8E03003F02003002BB4
:1055B00003D0786800F0C2FB5BE2D7F8D830002B4C
:1055C00000F0DE80D7F8DC3003F00103002B06D1B9
:1055D000D7F8E03003F49073002B00F0D180D7F8B7
:1055E000E43003F00103002B0BD0D7F8E03003F4D4
:1055F0008073002B05D07B685B6C43F001027B68F5
:105600005A64D7F8E43003F00403002B0BD0D7F82A
:10561000DC3003F00103002B05D07B685B6C43F0AA
:1056200002027B685A64D7F8E43003F00203002BCF
:105630000BD0D7F8DC3003F00103002B05D07B68DA
:105640005B6C43F004027B685A64D7F8E43003F0E3
:105650000803002B11D0D7F8E03003F02003002B13
:1056600005D1D7F8DC3003F00103002B05D07B68AF
:105670005B6C43F008027B685A647B685B6C002BB0
:1056800000F0F281D7F8E43003F02003002B08D0BB
:10569000D7F8E03003F02003002B02D0786800F048
:1056A0004DFB7B681B685B6903F04003402B0CBF1C
:1056B00001230023DBB2C7F8D4307B685B6C03F0B6
:1056C0000803002B03D1D7F8D430002B4FD07868D3
:1056D00000F055FA7B681B685B6903F04003402BC0
:1056E00041D17B681B681433C7F89C30D7F89C30D5
:1056F00053E8003FC7F89830D7F8983023F04003BC
:10570000C7F8D0307B681B681433D7F8D020C7F8AF
:10571000A820C7F8A430D7F8A410D7F8A82041E8EB
:105720000023C7F8A030D7F8A030002BD9D17B6870
:10573000DB6B002B13D07B68DB6B7E4A1A657B68C2
:10574000DB6B1846FDF758FE0346002B16D07B682E
:10575000DB6B1B6D7A68D26B104698470EE0786859
:1057600000F09EF90AE0786800F09AF906E078689F
:1057700000F096F97B6800225A6475E100BF73E17E
:105780007B681B6B012B40F04F81D7F8E43003F0AE
:105790001003002B00F04881D7F8E03003F010032D
:1057A000002B00F041810023BB607B681B681B68F5
:1057B000BB607B681B685B68BB60BB687B681B6801
:1057C0005B6903F04003402B40F0B6807B68DB6BE5
:1057D0001B685B68A7F8BE30B7F8BE30002B00F03E
:1057E00045817B689B8DB7F8BE209A4280F03E8150
:1057F0007B68B7F8BE20DA857B68DB6BDB69B3F5C5
:10580000807F00F088807B681B680C33C7F8883085
:10581000D7F8883053E8003FC7F88430D7F8843091
:1058200023F48073C7F8B8307B681B680C33D7F853
:10583000B820C7F89420C7F89030D7F89010D7F860
:10584000942041E80023C7F88C30D7F88C30002B27
:10585000D9D17B681B6814337B677B6F53E8003FAB
:105860003B673B6F23F00103C7F8B4307B681B68CC
:105870001433D7F8B420C7F88020FB67F96FD7F846
:10588000802041E80023BB67BB6F002BE1D17B6820
:105890001B6814333B663B6E53E8003FFB65FB6DB2
:1058A00023F04003C7F8B0307B681B681433D7F887
:1058B000B020FA66BB66B96EFA6E41E800237B66DB
:1058C0007B6E002BE3D17B68202283F842207B682B
:1058D00000221A637B681B680C33FB64FB6C53E883
:1058E000003FBB64BB6C23F01003C7F8AC307B688F
:1058F0001B680C33D7F8AC20BA657B65796DBA6D3F
:1059000041E800233B653B6D002BE3D17B68DB6BFB
:105910001846FDF701FD7B6802225A637B689A8D69
:105920007B68DB8D9BB2D31A9BB21946786800F076
:10593000C1F89BE0455C00087B689A8D7B68DB8D35
:105940009BB2D31AA7F8CE307B68DB8D9BB2002BBD
:1059500000F08E80B7F8CE30002B00F089807B6895
:105960001B680C33BB63BB6B53E8003F7B637B6BF3
:1059700023F49073C7F8C8307B681B680C33D7F8E2
:10598000C8207A643B64396C7A6C41E80023FB637D
:10599000FB6B002BE3D17B681B6814337B627B6A53
:1059A00053E8003F3B623B6A23F00103C7F8C43071
:1059B0007B681B681433D7F8C4203A63FB62F96A2A
:1059C0003A6B41E80023BB62BB6A002BE3D17B68E2
:1059D000202283F842207B6800221A637B681B68C0
:1059E0000C333B613B6953E8003FFB60FB6823F0ED
:1059F0001003C7F8C0307B681B680C33D7F8C02091
:105A0000FA61BB61B969FA6941E800237B617B698E
:105A1000002BE3D17B6802225A63B7F8CE301946D7
:105A2000786800F047F823E0D7F8E43003F080030B
:105A3000002B09D0D7F8E03003F08003002B03D00F
:105A4000786800F013F914E0D7F8E43003F040036D
:105A5000002B0ED0D7F8E03003F04003002B08D025
:105A6000786800F053F904E000BF02E000BF00E0F6
:105A700000BFE837BD4680BD80B483B000AF78601A
:105A800000BF0C37BD465DF8047B704780B483B01F
:105A900000AF786000BF0C37BD465DF8047B7047EF
:105AA00080B483B000AF786000BF0C37BD465DF8AE
:105AB000047B704780B483B000AF78600B467B8076
:105AC00000BF0C37BD465DF8047B704780B586B0DB
:105AD00000AFF860B9603B601346FB713BE03B6A86
